{"abi":[{"type":"constructor","inputs":[{"name":"_manager","type":"address","internalType":"contract IPoolManager"}],"stateMutability":"nonpayable"},{"type":"function","name":"manager","inputs":[],"outputs":[{"name":"","type":"address","internalType":"contract IPoolManager"}],"stateMutability":"view"},{"type":"function","name":"swap","inputs":[{"name":"key","type":"tuple","internalType":"struct PoolKey","components":[{"name":"currency0","type":"address","internalType":"Currency"},{"name":"currency1","type":"address","internalType":"Currency"},{"name":"fee","type":"uint24","internalType":"uint24"},{"name":"tickSpacing","type":"int24","internalType":"int24"},{"name":"hooks","type":"address","internalType":"contract IHooks"}]},{"name":"params","type":"tuple","internalType":"struct IPoolManager.SwapParams","components":[{"name":"zeroForOne","type":"bool","internalType":"bool"},{"name":"amountSpecified","type":"int256","internalType":"int256"},{"name":"sqrtPriceLimitX96","type":"uint160","internalType":"uint160"}]},{"name":"testSettings","type":"tuple","internalType":"struct PoolSwapTest.TestSettings","components":[{"name":"takeClaims","type":"bool","internalType":"bool"},{"name":"settleUsingBurn","type":"bool","internalType":"bool"}]},{"name":"hookData","type":"bytes","internalType":"bytes"}],"outputs":[{"name":"delta","type":"int256","internalType":"BalanceDelta"}],"stateMutability":"payable"},{"type":"function","name":"unlockCallback","inputs":[{"name":"rawData","type":"bytes","internalType":"bytes"}],"outputs":[{"name":"","type":"bytes","internalType":"bytes"}],"stateMutability":"nonpayable"},{"type":"error","name":"NoSwapOccurred","inputs":[]}],"bytecode":{"object":"0x60a06040523461007757610019610014610148565b610169565b61002161007c565b61278961017a823960805181818161046d015281816109c3015281816115d9015281816116b2015281816118e201528181611947015281816119ac01528181611a1601528181611d4f0152611d7c015261278990f35b610082565b60405190565b5f80fd5b601f801991011690565b634e487b7160e01b5f52604160045260245ffd5b906100ae90610086565b810190811060018060401b038211176100c657604052565b610090565b906100de6100d761007c565b92836100a4565b565b5f80fd5b60018060a01b031690565b6100f8906100e4565b90565b610104906100ef565b90565b610110816100fb565b0361011757565b5f80fd5b9050519061012882610107565b565b9060208282031261014357610140915f0161011b565b90565b6100e0565b6101666129038038038061015b816100cb565b92833981019061012a565b90565b61017290610174565b565b60805256fe60806040526004361015610013575b61062e565b61001d5f3561004c565b80632229d0b414610047578063481c6a7514610042576391dd73460361000e576105f8565b6104e5565b610429565b60e01c90565b60405190565b5f80fd5b5f80fd5b5f80fd5b601f801991011690565b634e487b7160e01b5f52604160045260245ffd5b9061008c90610064565b810190811067ffffffffffffffff8211176100a657604052565b61006e565b906100be6100b7610052565b9283610082565b565b5f80fd5b60018060a01b031690565b6100d8906100c4565b90565b6100e4816100cf565b036100eb57565b5f80fd5b905035906100fc826100db565b565b62ffffff1690565b61010f816100fe565b0361011657565b5f80fd5b9050359061012782610106565b565b60020b90565b61013881610129565b0361013f57565b5f80fd5b905035906101508261012f565b565b61015b906100cf565b90565b61016781610152565b0361016e57565b5f80fd5b9050359061017f8261015e565b565b919060a0838203126101f1576101ea9061019b60a06100ab565b936101a8825f83016100ef565b5f8601526101b982602083016100ef565b60208601526101cb826040830161011a565b60408601526101dd8260608301610143565b6060860152608001610172565b6080830152565b610060565b151590565b610204816101f6565b0361020b57565b5f80fd5b9050359061021c826101fb565b565b90565b61022a8161021e565b0361023157565b5f80fd5b9050359061024282610221565b565b61024d816100c4565b0361025457565b5f80fd5b9050359061026582610244565b565b91906060838203126102b3576102ac9061028160606100ab565b9361028e825f830161020f565b5f86015261029f8260208301610235565b6020860152604001610258565b6040830152565b610060565b91906040838203126102f2576102eb906102d260406100ab565b936102df825f830161020f565b5f86015260200161020f565b6020830152565b610060565b5f80fd5b5f80fd5b67ffffffffffffffff811161031d57610319602091610064565b0190565b61006e565b90825f939282370152565b9092919261034261033d826102ff565b6100ab565b9381855260208501908284011161035e5761035c92610322565b565b6102fb565b9080601f830112156103815781602061037e9335910161032d565b90565b6102f7565b90610160828203126103e35761039e815f8401610181565b926103ac8260a08501610267565b926103bb8361010083016102b8565b9261014082013567ffffffffffffffff81116103de576103db9201610363565b90565b61005c565b610058565b90565b6103ff6103fa6104049261021e565b6103e8565b61021e565b90565b610410906103eb565b9052565b9190610427905f60208501940190610407565b565b61045461044361043a366004610386565b9291909161099d565b61044b610052565b91829182610414565b0390f35b5f80fd5b5f91031261046657565b610058565b7f000000000000000000000000000000000000000000000000000000000000000090565b6104a361049e6104a8926100c4565b6103e8565b6100c4565b90565b6104b49061048f565b90565b6104c0906104ab565b90565b6104cc906104b7565b9052565b91906104e3905f602085019401906104c3565b565b34610515576104f536600461045c565b61051161050061046b565b610508610052565b918291826104d0565b0390f35b610458565b5f80fd5b5f80fd5b909182601f8301121561055c5781359167ffffffffffffffff831161055757602001926001830284011161055257565b61051e565b61051a565b6102f7565b90602082820312610592575f82013567ffffffffffffffff811161058d576105899201610522565b9091565b61005c565b610058565b5190565b60209181520190565b90825f9392825e0152565b6105ce6105d76020936105dc936105c581610597565b9384809361059b565b958691016105a4565b610064565b0190565b6105f59160208201915f8184039101526105af565b90565b346106295761062561061461060e366004610561565b906115bc565b61061c610052565b918291826105e0565b0390f35b610458565b5f80fd5b5f90565b61064060a06100ab565b90565b9061064d906100cf565b9052565b52565b52565b52565b52565b610666906100cf565b9052565b610673906101f6565b9052565b906020806106999361068f5f8201515f86019061066a565b015191019061066a565b565b6106a4906104ab565b90565b6106b09061069b565b9052565b6106bd906100fe565b9052565b6106ca90610129565b9052565b6106d7906104ab565b90565b6106e3906106ce565b9052565b9060808061073f936106ff5f8201515f8601906106a7565b610711602082015160208601906106a7565b610723604082015160408601906106b4565b610735606082015160608601906106c1565b01519101906106da565b565b61074a9061021e565b9052565b610757906100c4565b9052565b9060408061078f936107735f8201515f86019061066a565b61078560208201516020860190610741565b015191019061074e565b565b60209181520190565b6107b96107c26020936107c7936107b081610597565b93848093610791565b958691016105a4565b610064565b0190565b61082f9160806101808201926107e75f8201515f85019061065d565b6107f960208201516020850190610677565b61080b604082015160608501906106e7565b61081e606082015161010085019061075b565b01519061016081840391015261079a565b90565b6108479160208201915f8184039101526107cb565b90565b5f80fd5b60e01b90565b90929192610869610864826102ff565b6100ab565b9381855260208501908284011161088557610883926105a4565b565b6102fb565b9080601f830112156108a8578160206108a593519101610854565b90565b6102f7565b906020828203126108dd575f82015167ffffffffffffffff81116108d8576108d5920161088a565b90565b61005c565b610058565b6108ea610052565b3d5f823e3d90fd5b6108fb8161021e565b0361090257565b5f80fd5b90505190610913826108f2565b565b9060208282031261092e5761092b915f01610906565b90565b610058565b61093c906104ab565b90565b90565b90565b61095961095461095e92610942565b6103e8565b61093f565b90565b61097561097061097a92610942565b6103e8565b6100c4565b90565b61098690610961565b90565b61099a6109955f61097d565b61069b565b90565b92610a695f610a4693610a558296610a32610a74996109ba610632565b50610a296109e77f00000000000000000000000000000000000000000000000000000000000000006104b7565b98610a206348c8949197610a17339795919395610a0e610a05610636565b998d8b01610643565b60208901610651565b60408701610654565b60608501610657565b6080830161065a565b610a3a610052565b96879160208301610832565b60208201810382520386610082565b610a5d610052565b9687958694859361084e565b8352600483016105e0565b03925af18015610b0457610aa0915f91610ae2575b506020610a9582610597565b818301019101610915565b90610aaa30610933565b3180610abe610ab85f610945565b9161093f565b11610ac7575b50565b610adc90610ad3610989565b90339091611c4b565b5f610ac4565b610afe91503d805f833e610af68183610082565b8101906108ad565b5f610a89565b6108e2565b606090565b15610b1557565b5f80fd5b610b22816100cf565b03610b2957565b5f80fd5b90503590610b3a82610b19565b565b91909161018081840312610bc757610b5460a06100ab565b92610b61815f8401610b2d565b5f850152610b7281602084016102b8565b6020850152610b848160608401610181565b6040850152610b97816101008401610267565b606085015261016082013567ffffffffffffffff8111610bc257610bbb9201610363565b6080830152565b6100c0565b610060565b90602082820312610bfc575f82013567ffffffffffffffff8111610bf757610bf49201610b3c565b90565b61005c565b610058565b610c0b90516100cf565b90565b610c1890516100cf565b90565b610c2f610c2a610c3492610942565b6103e8565b61021e565b90565b60209181520190565b5f7f64656c74614265666f726530206973206e6f7420657175616c20746f20300000910152565b610c74601e602092610c37565b610c7d81610c40565b0190565b610c969060208101905f818303910152610c67565b90565b15610ca057565b610ca8610052565b62461bcd60e51b815280610cbe60048201610c81565b0390fd5b5f7f64656c74614265666f726531206973206e6f7420657175616c20746f20300000910152565b610cf6601e602092610c37565b610cff81610cc2565b0190565b610d189060208101905f818303910152610ce9565b90565b15610d2257565b610d2a610052565b62461bcd60e51b815280610d4060048201610d03565b0390fd5b90608080610d9c93610d5c5f8201515f8601906106a7565b610d6e602082015160208601906106a7565b610d80604082015160408601906106b4565b610d92606082015160608601906106c1565b01519101906106da565b565b90604080610dd293610db65f8201515f86019061066a565b610dc860208201516020860190610741565b015191019061074e565b565b610df9610e07949293610def6101208401955f850190610d44565b60a0830190610d9e565b6101008184039101526105af565b90565b610e1490516101f6565b90565b610e21905161021e565b90565b60207f657175616c20746f203000000000000000000000000000000000000000000000917f64656c7461416674657231206973206e6f74206c657373207468616e206f72205f8201520152565b610e7e602a604092610c37565b610e8781610e24565b0190565b610ea09060208101905f818303910152610e71565b90565b15610eaa57565b610eb2610052565b62461bcd60e51b815280610ec860048201610e8b565b0390fd5b600f0b90565b610ee6610ee1610eeb92610ecc565b6103e8565b61021e565b90565b60207f64656c7461416674657230000000000000000000000000000000000000000000917f64656c74612e616d6f756e74302829206973206e6f7420657175616c20746f205f8201520152565b610f48602b604092610c37565b610f5181610eee565b0190565b610f6a9060208101905f818303910152610f3b565b90565b15610f7457565b610f7c610052565b62461bcd60e51b815280610f9260048201610f55565b0390fd5b60407f6669656400000000000000000000000000000000000000000000000000000000917f64656c7461416674657230206973206e6f74206c657373207468616e206f72205f8201527f657175616c20746f20646174612e706172616d732e616d6f756e74537065636960208201520152565b6110166044606092610c37565b61101f81610f96565b0190565b6110389060208101905f818303910152611009565b90565b1561104257565b61104a610052565b62461bcd60e51b81528061106060048201611023565b0390fd5b60407f6563696669656400000000000000000000000000000000000000000000000000917f64656c7461416674657231206973206e6f742067726561746572207468616e205f8201527f6f7220657175616c20746f20646174612e706172616d732e616d6f756e74537060208201520152565b6110e46047606092610c37565b6110ed81611064565b0190565b6111069060208101905f8183039101526110d7565b90565b1561111057565b611118610052565b62461bcd60e51b81528061112e600482016110f1565b0390fd5b60207f64656c7461416674657231000000000000000000000000000000000000000000917f64656c74612e616d6f756e74312829206973206e6f7420657175616c20746f205f8201520152565b61118c602b604092610c37565b61119581611132565b0190565b6111ae9060208101905f81830391015261117f565b90565b156111b857565b6111c0610052565b62461bcd60e51b8152806111d660048201611199565b0390fd5b60207f6f7220657175616c20746f203000000000000000000000000000000000000000917f64656c7461416674657230206973206e6f742067726561746572207468616e205f8201520152565b611234602d604092610c37565b61123d816111da565b0190565b6112569060208101905f818303910152611227565b90565b1561126057565b611268610052565b62461bcd60e51b81528061127e60048201611241565b0390fd5b60207f657175616c20746f207a65726f00000000000000000000000000000000000000917f64656c7461416674657230206973206e6f74206c657373207468616e206f72205f8201520152565b6112dc602d604092610c37565b6112e581611282565b0190565b6112fe9060208101905f8183039101526112cf565b90565b1561130857565b611310610052565b62461bcd60e51b815280611326600482016112e9565b0390fd5b60407f6669656400000000000000000000000000000000000000000000000000000000917f64656c7461416674657231206973206e6f74206c657373207468616e206f72205f8201527f657175616c20746f20646174612e706172616d732e616d6f756e74537065636960208201520152565b6113aa6044606092610c37565b6113b38161132a565b0190565b6113cc9060208101905f81830391015261139d565b90565b156113d657565b6113de610052565b62461bcd60e51b8152806113f4600482016113b7565b0390fd5b60407f6563696669656400000000000000000000000000000000000000000000000000917f64656c7461416674657230206973206e6f742067726561746572207468616e205f8201527f6f7220657175616c20746f20646174612e706172616d732e616d6f756e74537060208201520152565b6114786047606092610c37565b611481816113f8565b0190565b61149a9060208101905f81830391015261146b565b90565b156114a457565b6114ac610052565b62461bcd60e51b8152806114c260048201611485565b0390fd5b60207f6f7220657175616c20746f203000000000000000000000000000000000000000917f64656c7461416674657231206973206e6f742067726561746572207468616e205f8201520152565b611520602d604092610c37565b611529816114c6565b0190565b6115429060208101905f818303910152611513565b90565b1561154c57565b611554610052565b62461bcd60e51b81528061156a6004820161152d565b0390fd5b634e487b7160e01b5f52601160045260245ffd5b61158b9061021e565b600160ff1b811461159b575f0390565b61156e565b6115b46115af6115b99261021e565b6103e8565b61093f565b90565b90611617916115c9610b09565b5061160e336116086116026115fd7f00000000000000000000000000000000000000000000000000000000000000006104b7565b6100cf565b916100cf565b14610b0e565b90810190610bcc565b6116ad61164661162c5f604085015101610c01565b6116375f8501610c0e565b61164030610933565b91611d1a565b91505061169561167961165f6020604087015101610c01565b61166a5f8701610c0e565b61167330610933565b91611d1a565b9150509161168f6116895f610c1b565b9161021e565b14610c99565b6116a76116a15f610c1b565b9161021e565b14610d1b565b6116d67f00000000000000000000000000000000000000000000000000000000000000006104b7565b602063f3cd914c9160408401519061170a5f60608701519561171560808901516116fe610052565b9889978896879561084e565b855260048501610dd4565b03925af1918215611c1a576118b9926118c8925f91611bec575b509061175d6117435f604084015101610c01565b61174e5f8401610c0e565b61175730610933565b91611d1a565b91505061178d6117736020604085015101610c01565b61177e5f8501610c0e565b61178730610933565b91611d1a565b915050906117a05f606085015101610e0a565b5f14611ade576117b66020606085015101610e17565b6117c86117c25f610c1b565b9161021e565b125f14611a6c576117fb816117f46117ee6117e96020606089015101610e17565b61021e565b9161021e565b121561149d565b61181f61180785611daa565b6118196118138461021e565b91610ed2565b14610f6d565b61183c8261183561182f5f610c1b565b9161021e565b1215611545565b5b5b8061185161184b5f610c1b565b9161021e565b12611a02575b8161186a6118645f610c1b565b9161021e565b12611997575b8061188361187d5f610c1b565b9161021e565b13611931575b508061189d6118975f610c1b565b9161021e565b136118cb575b50506118ad610052565b92839160208301610414565b60208201810382520382610082565b90565b816118df6020604061192a95015101610c01565b917f00000000000000000000000000000000000000000000000000000000000000006119245f602061191b611915838801610c0e565b956115a0565b95015101610e0a565b936122fa565b5f806118a3565b611991906119445f604086015101610c01565b907f00000000000000000000000000000000000000000000000000000000000000009061197b6119755f8801610c0e565b916115a0565b9161198b5f602089015101610e0a565b936122fa565b5f611889565b6119fd6119aa6020604086015101610c01565b7f00000000000000000000000000000000000000000000000000000000000000006119d65f8701610c0e565b6119e76119e287611582565b6115a0565b916119f76020808a015101610e0a565b93611f3d565b611870565b611a67611a145f604086015101610c01565b7f0000000000000000000000000000000000000000000000000000000000000000611a405f8701610c0e565b611a51611a4c86611582565b6115a0565b91611a616020808a015101610e0a565b93611f3d565b611857565b611a8981611a82611a7c5f610c1b565b9161021e565b1315611301565b611aad611a9585611db9565b611aa7611aa18561021e565b91610ed2565b146111b1565b611ad982611ad2611acc611ac76020606089015101610e17565b61021e565b9161021e565b13156113cf565b61183d565b611aee6020606085015101610e17565b611b00611afa5f610c1b565b9161021e565b125f14611b7a57611b3382611b2c611b26611b216020606089015101610e17565b61021e565b9161021e565b1215611109565b611b57611b3f85611db9565b611b51611b4b8561021e565b91610ed2565b146111b1565b611b7481611b6d611b675f610c1b565b9161021e565b1215611259565b5b61183e565b611b9782611b90611b8a5f610c1b565b9161021e565b1315610ea3565b611bbb611ba385611daa565b611bb5611baf8461021e565b91610ed2565b14610f6d565b611be781611be0611bda611bd56020606089015101610e17565b61021e565b9161021e565b131561103b565b611b75565b611c0d915060203d8111611c13575b611c058183610082565b810190610915565b5f61172f565b503d611bfb565b6108e2565b5f90565b63ffffffff60e01b1690565b611c43611c3e611c4892610942565b61084e565b611c23565b90565b919091611c56611c1f565b50611c6081612426565b5f14611c9757505f808080611c7894865af1156101f6565b611c8057505b565b611c895f611c2f565b633d2cec6f60e21b9161245d565b91611ce9916040519163a9059cbb60e01b835260018060a01b0316600483015260248201525f604060208260448582895af13d15601f3d116001855114161716928281528260208201520152156101f6565b611cf35750611c7e565b611cfc9061069b565b63a9059cbb60e01b633c9fd93960e21b9161245d565b5f90565b5f90565b919290611d45611da391611d2c611d12565b50611d35611d12565b50611d3e611d16565b50846124e3565b93611d7984611d737f00000000000000000000000000000000000000000000000000000000000000006104b7565b906124e3565b937f000000000000000000000000000000000000000000000000000000000000000091909161264a565b90565b5f90565b611db2611da6565b5060801d90565b611dc1611da6565b50600f0b90565b5f910312611dd257565b610058565b611de09061069b565b9052565b9190611df7905f60208501940190611dd7565b565b611e02906104ab565b90565b611e0e9061048f565b90565b611e1a90611e05565b90565b611e26906104ab565b90565b90505190611e36826101fb565b565b90602082820312611e5157611e4e915f01611e29565b90565b610058565b611e5f906100cf565b9052565b611e6c9061093f565b9052565b916020611e91929493611e8a60408201965f830190611e56565b0190611e63565b565b604090611ebc611ec39496959396611eb260608401985f850190611e56565b6020830190611e56565b0190611e63565b565b611ece8161093f565b03611ed557565b5f80fd5b90505190611ee682611ec5565b565b90602082820312611f0157611efe915f01611ed9565b90565b610058565b5f0190565b604090611f34611f3b9496959396611f2a60608401985f850190611e56565b6020830190611e63565b0190611e63565b565b9192935f14611fd957611f4f906104b7565b611f5e63f5298aca939261272e565b9392813b15611fd4575f611f8591611f908296611f79610052565b9889978896879561084e565b855260048501611f0b565b03925af18015611fcf57611fa3575b505b565b611fc2905f3d8111611fc8575b611fba8183610082565b810190611dc8565b5f611f9f565b503d611fb0565b6108e2565b61084a565b9291611fe482612426565b5f1461206c57505090612016611ffb6020926104b7565b926311da60b490939061200c610052565b948593849261084e565b82528161202560048201611f06565b03925af180156120675761203b575b505b611fa1565b61205b9060203d8111612060575b6120538183610082565b810190611ee8565b612034565b503d612049565b6108e2565b612075846104b7565b9163a584119481843b156122c3576120ac946120a15f8094612095610052565b9889958694859361084e565b835260048301611de4565b03925af19283156122be57602093612292575b50816120db6120d56120d030611df9565b6100cf565b916100cf565b14155f146121ef576120f76120f26120fc9261069b565b611e11565b611e1d565b6121265f6323b872dd612131612111896104b7565b9761211a610052565b9889978896879561084e565b855260048501611e93565b03925af180156121ea5761216892602092612152926121bf575b505b6104b7565b6311da60b490612160610052565b93849261084e565b8252815f8161217960048201611f06565b03925af180156121ba5761218e575b50612036565b6121ae9060203d81116121b3575b6121a68183610082565b810190611ee8565b612188565b503d61219c565b6108e2565b6121de90843d81116121e3575b6121d68183610082565b810190611e38565b61214b565b503d6121cc565b6108e2565b61220a91506122006122059161069b565b611e11565b611e1d565b9163a9059cbb926122375f61221e876104b7565b939561224261222b610052565b9788968795869461084e565b845260048401611e70565b03925af1801561228d576121689260209261215292612262575b5061214d565b61228190843d8111612286575b6122798183610082565b810190611e38565b61225c565b503d61226f565b6108e2565b6122b1905f3d81116122b7575b6122a98183610082565b810190611dc8565b5f6120bf565b503d61229f565b6108e2565b61084a565b6040906122f16122f894969593966122e760608401985f850190611dd7565b6020830190611e56565b0190611e63565b565b9192935f146123965761230c906104b7565b61231b63156e29f6939261272e565b9392813b15612391575f6123429161234d8296612336610052565b9889978896879561084e565b855260048501611f0b565b03925af1801561238c57612360575b505b565b61237f905f3d8111612385575b6123778183610082565b810190611dc8565b5f61235c565b503d61236d565b6108e2565b61084a565b6123a2909291926104b7565b630b0d9c0992919392813b15612421575f6123d0916123db82966123c4610052565b9889978896879561084e565b8552600485016122c8565b03925af1801561241c576123f0575b5061235e565b61240f905f3d8111612415575b6124078183610082565b810190611dc8565b5f6123ea565b503d6123fd565b6108e2565b61084a565b61243890612432611c1f565b5061069b565b61245961245361244e612449610989565b61069b565b6100cf565b916100cf565b1490565b826390bfb86560e01b92602080601f3d0104029260405194855260018060a01b0316600485015263ffffffff60e01b166024840152608060448401528160a00160648401523d60848401523d5f60a485013e60048260a40184015263ffffffff60e01b168160c40183015260e40190fd5b91906124e1905f60208501940190611e56565b565b6124eb611d12565b506124f581612426565b5f1461250057503190565b6125469161251f61251a61251560209461069b565b611e11565b611e1d565b61253b6370a0823161252f610052565b9586948593849361084e565b8352600483016124ce565b03915afa90811561258a575f9161255c575b5090565b61257d915060203d8111612583575b6125758183610082565b810190611ee8565b5f612558565b503d61256b565b6108e2565b5f90565b90565b61259f81612593565b036125a657565b5f80fd5b905051906125b782612596565b565b906020828203126125d2576125cf915f016125aa565b90565b610058565b6125e090612593565b9052565b91906125f7905f602085019401906125d7565b565b5f1c90565b61261261260d6126179261093f565b6103e8565b61093f565b90565b61262661262b916125f9565b6125fe565b90565b61264261263d6126479261093f565b6103e8565b61021e565b90565b6126ab92602092612659611d16565b5061266261258f565b5060018060a01b03165f5260018060a01b0316825261268460405f20916104b7565b6126a063f135baaa612694610052565b9586948593849361084e565b8352600483016125e4565b03915afa908115612701576126d0916126cb915f916126d3575b5061261a565b61262e565b90565b6126f4915060203d81116126fa575b6126ec8183610082565b8101906125b9565b5f6126c5565b503d6126e2565b6108e2565b61270f9061048f565b90565b61272661272161272b926100c4565b6103e8565b61093f565b90565b61274b61274661275092612740611d12565b5061069b565b612706565b612712565b9056fea2646970667358221220edf6b1c552b7ab1aa7fe0aa596277dc1b7598ba543c6520733d9bc9928b0428664736f6c634300081a0033","linkReferences":{}},"methodIdentifiers":{"manager()":"481c6a75","swap((address,address,uint24,int24,address),(bool,int256,uint160),(bool,bool),bytes)":"2229d0b4","unlockCallback(bytes)":"91dd7346"},"id":100}