{"abi":[{"type":"constructor","inputs":[{"name":"initialOwner","type":"address","internalType":"address"}],"stateMutability":"nonpayable"},{"type":"function","name":"allowance","inputs":[{"name":"owner","type":"address","internalType":"address"},{"name":"spender","type":"address","internalType":"address"},{"name":"id","type":"uint256","internalType":"uint256"}],"outputs":[{"name":"amount","type":"uint256","internalType":"uint256"}],"stateMutability":"view"},{"type":"function","name":"approve","inputs":[{"name":"spender","type":"address","internalType":"address"},{"name":"id","type":"uint256","internalType":"uint256"},{"name":"amount","type":"uint256","internalType":"uint256"}],"outputs":[{"name":"","type":"bool","internalType":"bool"}],"stateMutability":"nonpayable"},{"type":"function","name":"balanceOf","inputs":[{"name":"owner","type":"address","internalType":"address"},{"name":"id","type":"uint256","internalType":"uint256"}],"outputs":[{"name":"balance","type":"uint256","internalType":"uint256"}],"stateMutability":"view"},{"type":"function","name":"burn","inputs":[{"name":"from","type":"address","internalType":"address"},{"name":"id","type":"uint256","internalType":"uint256"},{"name":"amount","type":"uint256","internalType":"uint256"}],"outputs":[],"stateMutability":"nonpayable"},{"type":"function","name":"clear","inputs":[{"name":"currency","type":"address","internalType":"Currency"},{"name":"amount","type":"uint256","internalType":"uint256"}],"outputs":[],"stateMutability":"nonpayable"},{"type":"function","name":"collectProtocolFees","inputs":[{"name":"recipient","type":"address","internalType":"address"},{"name":"currency","type":"address","internalType":"Currency"},{"name":"amount","type":"uint256","internalType":"uint256"}],"outputs":[{"name":"amountCollected","type":"uint256","internalType":"uint256"}],"stateMutability":"nonpayable"},{"type":"function","name":"donate","inputs":[{"name":"key","type":"tuple","internalType":"struct PoolKey","components":[{"name":"currency0","type":"address","internalType":"Currency"},{"name":"currency1","type":"address","internalType":"Currency"},{"name":"fee","type":"uint24","internalType":"uint24"},{"name":"tickSpacing","type":"int24","internalType":"int24"},{"name":"hooks","type":"address","internalType":"contract IHooks"}]},{"name":"amount0","type":"uint256","internalType":"uint256"},{"name":"amount1","type":"uint256","internalType":"uint256"},{"name":"hookData","type":"bytes","internalType":"bytes"}],"outputs":[{"name":"delta","type":"int256","internalType":"BalanceDelta"}],"stateMutability":"nonpayable"},{"type":"function","name":"extsload","inputs":[{"name":"slot","type":"bytes32","internalType":"bytes32"}],"outputs":[{"name":"","type":"bytes32","internalType":"bytes32"}],"stateMutability":"view"},{"type":"function","name":"extsload","inputs":[{"name":"startSlot","type":"bytes32","internalType":"bytes32"},{"name":"nSlots","type":"uint256","internalType":"uint256"}],"outputs":[{"name":"","type":"bytes32[]","internalType":"bytes32[]"}],"stateMutability":"view"},{"type":"function","name":"extsload","inputs":[{"name":"slots","type":"bytes32[]","internalType":"bytes32[]"}],"outputs":[{"name":"","type":"bytes32[]","internalType":"bytes32[]"}],"stateMutability":"view"},{"type":"function","name":"exttload","inputs":[{"name":"slots","type":"bytes32[]","internalType":"bytes32[]"}],"outputs":[{"name":"","type":"bytes32[]","internalType":"bytes32[]"}],"stateMutability":"view"},{"type":"function","name":"exttload","inputs":[{"name":"slot","type":"bytes32","internalType":"bytes32"}],"outputs":[{"name":"","type":"bytes32","internalType":"bytes32"}],"stateMutability":"view"},{"type":"function","name":"initialize","inputs":[{"name":"key","type":"tuple","internalType":"struct PoolKey","components":[{"name":"currency0","type":"address","internalType":"Currency"},{"name":"currency1","type":"address","internalType":"Currency"},{"name":"fee","type":"uint24","internalType":"uint24"},{"name":"tickSpacing","type":"int24","internalType":"int24"},{"name":"hooks","type":"address","internalType":"contract IHooks"}]},{"name":"sqrtPriceX96","type":"uint160","internalType":"uint160"}],"outputs":[{"name":"tick","type":"int24","internalType":"int24"}],"stateMutability":"nonpayable"},{"type":"function","name":"isOperator","inputs":[{"name":"owner","type":"address","internalType":"address"},{"name":"operator","type":"address","internalType":"address"}],"outputs":[{"name":"isOperator","type":"bool","internalType":"bool"}],"stateMutability":"view"},{"type":"function","name":"mint","inputs":[{"name":"to","type":"address","internalType":"address"},{"name":"id","type":"uint256","internalType":"uint256"},{"name":"amount","type":"uint256","internalType":"uint256"}],"outputs":[],"stateMutability":"nonpayable"},{"type":"function","name":"modifyLiquidity","inputs":[{"name":"key","type":"tuple","internalType":"struct PoolKey","components":[{"name":"currency0","type":"address","internalType":"Currency"},{"name":"currency1","type":"address","internalType":"Currency"},{"name":"fee","type":"uint24","internalType":"uint24"},{"name":"tickSpacing","type":"int24","internalType":"int24"},{"name":"hooks","type":"address","internalType":"contract IHooks"}]},{"name":"params","type":"tuple","internalType":"struct IPoolManager.ModifyLiquidityParams","components":[{"name":"tickLower","type":"int24","internalType":"int24"},{"name":"tickUpper","type":"int24","internalType":"int24"},{"name":"liquidityDelta","type":"int256","internalType":"int256"},{"name":"salt","type":"bytes32","internalType":"bytes32"}]},{"name":"hookData","type":"bytes","internalType":"bytes"}],"outputs":[{"name":"callerDelta","type":"int256","internalType":"BalanceDelta"},{"name":"feesAccrued","type":"int256","internalType":"BalanceDelta"}],"stateMutability":"nonpayable"},{"type":"function","name":"owner","inputs":[],"outputs":[{"name":"","type":"address","internalType":"address"}],"stateMutability":"view"},{"type":"function","name":"protocolFeeController","inputs":[],"outputs":[{"name":"","type":"address","internalType":"address"}],"stateMutability":"view"},{"type":"function","name":"protocolFeesAccrued","inputs":[{"name":"currency","type":"address","internalType":"Currency"}],"outputs":[{"name":"amount","type":"uint256","internalType":"uint256"}],"stateMutability":"view"},{"type":"function","name":"setOperator","inputs":[{"name":"operator","type":"address","internalType":"address"},{"name":"approved","type":"bool","internalType":"bool"}],"outputs":[{"name":"","type":"bool","internalType":"bool"}],"stateMutability":"nonpayable"},{"type":"function","name":"setProtocolFee","inputs":[{"name":"key","type":"tuple","internalType":"struct PoolKey","components":[{"name":"currency0","type":"address","internalType":"Currency"},{"name":"currency1","type":"address","internalType":"Currency"},{"name":"fee","type":"uint24","internalType":"uint24"},{"name":"tickSpacing","type":"int24","internalType":"int24"},{"name":"hooks","type":"address","internalType":"contract IHooks"}]},{"name":"newProtocolFee","type":"uint24","internalType":"uint24"}],"outputs":[],"stateMutability":"nonpayable"},{"type":"function","name":"setProtocolFeeController","inputs":[{"name":"controller","type":"address","internalType":"address"}],"outputs":[],"stateMutability":"nonpayable"},{"type":"function","name":"settle","inputs":[],"outputs":[{"name":"","type":"uint256","internalType":"uint256"}],"stateMutability":"payable"},{"type":"function","name":"settleFor","inputs":[{"name":"recipient","type":"address","internalType":"address"}],"outputs":[{"name":"","type":"uint256","internalType":"uint256"}],"stateMutability":"payable"},{"type":"function","name":"supportsInterface","inputs":[{"name":"interfaceId","type":"bytes4","internalType":"bytes4"}],"outputs":[{"name":"","type":"bool","internalType":"bool"}],"stateMutability":"view"},{"type":"function","name":"swap","inputs":[{"name":"key","type":"tuple","internalType":"struct PoolKey","components":[{"name":"currency0","type":"address","internalType":"Currency"},{"name":"currency1","type":"address","internalType":"Currency"},{"name":"fee","type":"uint24","internalType":"uint24"},{"name":"tickSpacing","type":"int24","internalType":"int24"},{"name":"hooks","type":"address","internalType":"contract IHooks"}]},{"name":"params","type":"tuple","internalType":"struct IPoolManager.SwapParams","components":[{"name":"zeroForOne","type":"bool","internalType":"bool"},{"name":"amountSpecified","type":"int256","internalType":"int256"},{"name":"sqrtPriceLimitX96","type":"uint160","internalType":"uint160"}]},{"name":"hookData","type":"bytes","internalType":"bytes"}],"outputs":[{"name":"swapDelta","type":"int256","internalType":"BalanceDelta"}],"stateMutability":"nonpayable"},{"type":"function","name":"sync","inputs":[{"name":"currency","type":"address","internalType":"Currency"}],"outputs":[],"stateMutability":"nonpayable"},{"type":"function","name":"take","inputs":[{"name":"currency","type":"address","internalType":"Currency"},{"name":"to","type":"address","internalType":"address"},{"name":"amount","type":"uint256","internalType":"uint256"}],"outputs":[],"stateMutability":"nonpayable"},{"type":"function","name":"transfer","inputs":[{"name":"receiver","type":"address","internalType":"address"},{"name":"id","type":"uint256","internalType":"uint256"},{"name":"amount","type":"uint256","internalType":"uint256"}],"outputs":[{"name":"","type":"bool","internalType":"bool"}],"stateMutability":"nonpayable"},{"type":"function","name":"transferFrom","inputs":[{"name":"sender","type":"address","internalType":"address"},{"name":"receiver","type":"address","internalType":"address"},{"name":"id","type":"uint256","internalType":"uint256"},{"name":"amount","type":"uint256","internalType":"uint256"}],"outputs":[{"name":"","type":"bool","internalType":"bool"}],"stateMutability":"nonpayable"},{"type":"function","name":"transferOwnership","inputs":[{"name":"newOwner","type":"address","internalType":"address"}],"outputs":[],"stateMutability":"nonpayable"},{"type":"function","name":"unlock","inputs":[{"name":"data","type":"bytes","internalType":"bytes"}],"outputs":[{"name":"result","type":"bytes","internalType":"bytes"}],"stateMutability":"nonpayable"},{"type":"function","name":"updateDynamicLPFee","inputs":[{"name":"key","type":"tuple","internalType":"struct PoolKey","components":[{"name":"currency0","type":"address","internalType":"Currency"},{"name":"currency1","type":"address","internalType":"Currency"},{"name":"fee","type":"uint24","internalType":"uint24"},{"name":"tickSpacing","type":"int24","internalType":"int24"},{"name":"hooks","type":"address","internalType":"contract IHooks"}]},{"name":"newDynamicLPFee","type":"uint24","internalType":"uint24"}],"outputs":[],"stateMutability":"nonpayable"},{"type":"event","name":"Approval","inputs":[{"name":"owner","type":"address","indexed":true,"internalType":"address"},{"name":"spender","type":"address","indexed":true,"internalType":"address"},{"name":"id","type":"uint256","indexed":true,"internalType":"uint256"},{"name":"amount","type":"uint256","indexed":false,"internalType":"uint256"}],"anonymous":false},{"type":"event","name":"Donate","inputs":[{"name":"id","type":"bytes32","indexed":true,"internalType":"PoolId"},{"name":"sender","type":"address","indexed":true,"internalType":"address"},{"name":"amount0","type":"uint256","indexed":false,"internalType":"uint256"},{"name":"amount1","type":"uint256","indexed":false,"internalType":"uint256"}],"anonymous":false},{"type":"event","name":"Initialize","inputs":[{"name":"id","type":"bytes32","indexed":true,"internalType":"PoolId"},{"name":"currency0","type":"address","indexed":true,"internalType":"Currency"},{"name":"currency1","type":"address","indexed":true,"internalType":"Currency"},{"name":"fee","type":"uint24","indexed":false,"internalType":"uint24"},{"name":"tickSpacing","type":"int24","indexed":false,"internalType":"int24"},{"name":"hooks","type":"address","indexed":false,"internalType":"contract IHooks"},{"name":"sqrtPriceX96","type":"uint160","indexed":false,"internalType":"uint160"},{"name":"tick","type":"int24","indexed":false,"internalType":"int24"}],"anonymous":false},{"type":"event","name":"ModifyLiquidity","inputs":[{"name":"id","type":"bytes32","indexed":true,"internalType":"PoolId"},{"name":"sender","type":"address","indexed":true,"internalType":"address"},{"name":"tickLower","type":"int24","indexed":false,"internalType":"int24"},{"name":"tickUpper","type":"int24","indexed":false,"internalType":"int24"},{"name":"liquidityDelta","type":"int256","indexed":false,"internalType":"int256"},{"name":"salt","type":"bytes32","indexed":false,"internalType":"bytes32"}],"anonymous":false},{"type":"event","name":"OperatorSet","inputs":[{"name":"owner","type":"address","indexed":true,"internalType":"address"},{"name":"operator","type":"address","indexed":true,"internalType":"address"},{"name":"approved","type":"bool","indexed":false,"internalType":"bool"}],"anonymous":false},{"type":"event","name":"OwnershipTransferred","inputs":[{"name":"user","type":"address","indexed":true,"internalType":"address"},{"name":"newOwner","type":"address","indexed":true,"internalType":"address"}],"anonymous":false},{"type":"event","name":"ProtocolFeeControllerUpdated","inputs":[{"name":"protocolFeeController","type":"address","indexed":true,"internalType":"address"}],"anonymous":false},{"type":"event","name":"ProtocolFeeUpdated","inputs":[{"name":"id","type":"bytes32","indexed":true,"internalType":"PoolId"},{"name":"protocolFee","type":"uint24","indexed":false,"internalType":"uint24"}],"anonymous":false},{"type":"event","name":"Swap","inputs":[{"name":"id","type":"bytes32","indexed":true,"internalType":"PoolId"},{"name":"sender","type":"address","indexed":true,"internalType":"address"},{"name":"amount0","type":"int128","indexed":false,"internalType":"int128"},{"name":"amount1","type":"int128","indexed":false,"internalType":"int128"},{"name":"sqrtPriceX96","type":"uint160","indexed":false,"internalType":"uint160"},{"name":"liquidity","type":"uint128","indexed":false,"internalType":"uint128"},{"name":"tick","type":"int24","indexed":false,"internalType":"int24"},{"name":"fee","type":"uint24","indexed":false,"internalType":"uint24"}],"anonymous":false},{"type":"event","name":"Transfer","inputs":[{"name":"caller","type":"address","indexed":false,"internalType":"address"},{"name":"from","type":"address","indexed":true,"internalType":"address"},{"name":"to","type":"address","indexed":true,"internalType":"address"},{"name":"id","type":"uint256","indexed":true,"internalType":"uint256"},{"name":"amount","type":"uint256","indexed":false,"internalType":"uint256"}],"anonymous":false},{"type":"error","name":"AlreadyUnlocked","inputs":[]},{"type":"error","name":"CurrenciesOutOfOrderOrEqual","inputs":[{"name":"currency0","type":"address","internalType":"address"},{"name":"currency1","type":"address","internalType":"address"}]},{"type":"error","name":"CurrencyNotSettled","inputs":[]},{"type":"error","name":"DelegateCallNotAllowed","inputs":[]},{"type":"error","name":"InvalidCaller","inputs":[]},{"type":"error","name":"ManagerLocked","inputs":[]},{"type":"error","name":"MustClearExactPositiveDelta","inputs":[]},{"type":"error","name":"NonzeroNativeValue","inputs":[]},{"type":"error","name":"PoolNotInitialized","inputs":[]},{"type":"error","name":"ProtocolFeeCurrencySynced","inputs":[]},{"type":"error","name":"ProtocolFeeTooLarge","inputs":[{"name":"fee","type":"uint24","internalType":"uint24"}]},{"type":"error","name":"SwapAmountCannotBeZero","inputs":[]},{"type":"error","name":"TickSpacingTooLarge","inputs":[{"name":"tickSpacing","type":"int24","internalType":"int24"}]},{"type":"error","name":"TickSpacingTooSmall","inputs":[{"name":"tickSpacing","type":"int24","internalType":"int24"}]},{"type":"error","name":"UnauthorizedDynamicLPFeeUpdate","inputs":[]}],"bytecode":{"object":"0x60a060405234610038576100196100146100fd565b61011e565b61002161003d565b61943a61028d82396080518161335b015261943a90f35b610043565b60405190565b5f80fd5b601f801991011690565b634e487b7160e01b5f52604160045260245ffd5b9061006f90610047565b810190811060018060401b0382111761008757604052565b610051565b9061009f61009861003d565b9283610065565b565b5f80fd5b60018060a01b031690565b6100b9906100a5565b90565b6100c5816100b0565b036100cc57565b5f80fd5b905051906100dd826100bc565b565b906020828203126100f8576100f5915f016100d0565b90565b6100a1565b61011b6196c7803803806101108161008c565b9283398101906100df565b90565b61012790610129565b565b61013290610134565b565b61013d9061013f565b565b6101489061014a565b565b6101539061018c565b565b90565b61016c610167610171926100a5565b610155565b6100a5565b90565b61017d90610158565b90565b61018990610174565b90565b610195906101a3565b61019e30610180565b608052565b6101ac9061022d565b565b5f1b90565b906101c460018060a01b03916101ae565b9181191691161790565b6101d790610174565b90565b90565b906101f26101ed6101f9926101ce565b6101da565b82546101b3565b9055565b90565b61021461020f610219926101fd565b610155565b6100a5565b90565b61022590610200565b90565b5f0190565b610237815f6101dd565b6102405f61021c565b9061027461026e7f8be0079c531659141344cd1fd0a4f28419497f9722a3daafe3b4186f6b6457e0936101ce565b916101ce565b9161027d61003d565b8061028781610228565b0390a356fe60806040526004361015610013575b611485565b61001d5f3561022b565b8062fdd58e1461022657806301ffc9a714610221578063095bcdb61461021c5780630b0d9c091461021757806311da60b414610212578063156e29f61461020d5780631e2eaeaf14610208578063234266d7146102035780632d771389146101fe57806335fd631a146101f95780633dd45adb146101f4578063426a8493146101ef57806348c89491146101ea57806352759651146101e5578063558a7297146101e0578063598af9e7146101db5780635a6bcfda146101d65780636276cbbe146101d15780637e87ce7d146101cc57806380f0b44c146101c75780638161b874146101c25780638da5cb5b146101bd57806397e8cd4e146101b85780639bf6645f146101b3578063a5841194146101ae578063b6363cf2146101a9578063dbd035ff146101a4578063f02de3b21461019f578063f135baaa1461019a578063f2fde38b14610195578063f3cd914c14610190578063f5298aca1461018b5763fe99049a0361000e5761144c565b6113d2565b611399565b6112c1565b6112a7565b611272565b611248565b611212565b611139565b61111e565b611074565b610ff2565b610f5c565b610eee565b610e8d565b610e57565b610dab565b610c78565b610bc7565b610b43565b610ae0565b610a13565b6109e8565b6109cd565b610919565b6108c2565b610663565b6105de565b6105b3565b610570565b6104d8565b610469565b6103bf565b60e01c90565b60405190565b5f80fd5b5f80fd5b5f80fd5b60018060a01b031690565b61025790610243565b90565b6102638161024e565b0361026a57565b5f80fd5b9050359061027b8261025a565b565b90565b6102898161027d565b0361029057565b5f80fd5b905035906102a182610280565b565b91906040838203126102cb57806102bf6102c8925f860161026e565b93602001610294565b90565b61023b565b90565b6102e76102e26102ec92610243565b6102d0565b610243565b90565b6102f8906102d3565b90565b610304906102ef565b90565b90610311906102fb565b5f5260205260405f2090565b61033161032c6103369261027d565b6102d0565b61027d565b90565b906103439061031d565b5f5260205260405f2090565b1c90565b90565b61036690600861036b930261034f565b610353565b90565b906103799154610356565b90565b61039561039a926103906004935f94610307565b610339565b61036e565b90565b6103a69061027d565b9052565b91906103bd905f6020850194019061039d565b565b346103f0576103ec6103db6103d53660046102a3565b9061037c565b6103e3610231565b918291826103aa565b0390f35b610237565b63ffffffff60e01b1690565b61040a816103f5565b0361041157565b5f80fd5b9050359061042282610401565b565b9060208282031261043d5761043a915f01610415565b90565b61023b565b151590565b61045090610442565b9052565b9190610467905f60208501940190610447565b565b346104995761049561048461047f366004610424565b6114d1565b61048c610231565b91829182610454565b0390f35b610237565b90916060828403126104d3576104d06104b9845f850161026e565b936104c78160208601610294565b93604001610294565b90565b61023b565b34610509576105056104f46104ee36600461049e565b91611602565b6104fc610231565b91829182610454565b0390f35b610237565b6105178161024e565b0361051e57565b5f80fd5b9050359061052f8261050e565b565b90916060828403126105665761056361054c845f8501610522565b9361055a816020860161026e565b93604001610294565b90565b61023b565b5f0190565b3461059f57610589610583366004610531565b9161173e565b610591610231565b8061059b8161056b565b0390f35b610237565b5f9103126105ae57565b61023b565b6105be3660046105a4565b6105da6105c961178a565b6105d1610231565b918291826103aa565b0390f35b3461060d576105f76105f136600461049e565b91611809565b6105ff610231565b806106098161056b565b0390f35b610237565b90565b61061e81610612565b0361062557565b5f80fd5b9050359061063682610615565b565b906020828203126106515761064e915f01610629565b90565b61023b565b61065f90610612565b9052565b3461067857610673366004610638565b61181a565b610237565b5f80fd5b601f801991011690565b634e487b7160e01b5f52604160045260245ffd5b906106a990610681565b810190811067ffffffffffffffff8211176106c357604052565b61068b565b906106db6106d4610231565b928361069f565b565b62ffffff1690565b6106ee816106dd565b036106f557565b5f80fd5b90503590610706826106e5565b565b60020b90565b61071781610708565b0361071e57565b5f80fd5b9050359061072f8261070e565b565b61073a9061024e565b90565b61074681610731565b0361074d57565b5f80fd5b9050359061075e8261073d565b565b919060a0838203126107d0576107c99061077a60a06106c8565b93610787825f8301610522565b5f8601526107988260208301610522565b60208601526107aa82604083016106f9565b60408601526107bc8260608301610722565b6060860152608001610751565b6080830152565b61067d565b5f80fd5b5f80fd5b5f80fd5b909182601f8301121561081b5781359167ffffffffffffffff831161081657602001926001830284011161081157565b6107dd565b6107d9565b6107d5565b906101008282031261087c57610838815f8401610760565b926108468260a08501610294565b926108548360c08301610294565b9260e082013567ffffffffffffffff81116108775761087392016107e1565b9091565b61023f565b61023b565b90565b61089861089361089d92610881565b6102d0565b610881565b90565b6108a990610884565b9052565b91906108c0905f602085019401906108a0565b565b346108f6576108f26108e16108d8366004610820565b9392909261197b565b6108e9610231565b918291826108ad565b0390f35b610237565b9060208282031261091457610911915f0161026e565b90565b61023b565b346109475761093161092c3660046108fb565b611af9565b610939610231565b806109438161056b565b0390f35b610237565b91906040838203126109745780610968610971925f8601610629565b93602001610294565b90565b61023b565b61098290610612565b9052565b9061099381602093610979565b0190565b60200190565b8181106109aa5750505090565b9091926109c36109bd6001928651610986565b94610997565b910191909161099d565b346109e3576109dd36600461094c565b90611b09565b610237565b610a0f6109fe6109f93660046108fb565b611b93565b610a06610231565b918291826103aa565b0390f35b34610a4457610a40610a2f610a2936600461049e565b91611ba7565b610a37610231565b91829182610454565b0390f35b610237565b90602082820312610a7a575f82013567ffffffffffffffff8111610a7557610a7192016107e1565b9091565b61023f565b61023b565b5190565b60209181520190565b90825f9392825e0152565b610ab6610abf602093610ac493610aad81610a7f565b93848093610a83565b95869101610a8c565b610681565b0190565b610add9160208201915f818403910152610a97565b90565b34610b1157610b0d610afc610af6366004610a49565b90611d8e565b610b04610231565b91829182610ac8565b0390f35b610237565b919060c083820312610b3e5780610b32610b3b925f8601610760565b9360a0016106f9565b90565b61023b565b34610b7257610b5c610b56366004610b16565b90611e9d565b610b64610231565b80610b6e8161056b565b0390f35b610237565b610b8081610442565b03610b8757565b5f80fd5b90503590610b9882610b77565b565b9190604083820312610bc25780610bb6610bbf925f860161026e565b93602001610b8b565b90565b61023b565b34610bf857610bf4610be3610bdd366004610b9a565b90611f74565b610beb610231565b91829182610454565b0390f35b610237565b9091606082840312610c3257610c2f610c18845f850161026e565b93610c26816020860161026e565b93604001610294565b90565b61023b565b90610c41906102fb565b5f5260205260405f2090565b90610c7592610c6b610c7092610c666005955f96610c37565b610307565b610339565b61036e565b90565b34610ca957610ca5610c94610c8e366004610bfd565b91610c4d565b610c9c610231565b918291826103aa565b0390f35b610237565b610cb781610881565b03610cbe57565b5f80fd5b90503590610ccf82610cae565b565b9190608083820312610d2f57610d2890610ceb60806106c8565b93610cf8825f8301610722565b5f860152610d098260208301610722565b6020860152610d1b8260408301610cc2565b6040860152606001610629565b6060830152565b61067d565b9161014083830312610d8357610d4c825f8501610760565b92610d5a8360a08301610cd1565b9261012082013567ffffffffffffffff8111610d7e57610d7a92016107e1565b9091565b61023f565b61023b565b916020610da9929493610da260408201965f8301906108a0565b01906108a0565b565b34610de057610dc7610dbe366004610d34565b92919091612305565b90610ddc610dd3610231565b92839283610d88565b0390f35b610237565b610dee81610243565b03610df557565b5f80fd5b90503590610e0682610de5565b565b919060c083820312610e305780610e24610e2d925f8601610760565b9360a001610df9565b90565b61023b565b610e3e90610708565b9052565b9190610e55905f60208501940190610e35565b565b34610e8857610e84610e73610e6d366004610e08565b9061266f565b610e7b610231565b91829182610e42565b0390f35b610237565b34610ebc57610ea6610ea0366004610b16565b906126b5565b610eae610231565b80610eb88161056b565b0390f35b610237565b9190604083820312610ee95780610edd610ee6925f8601610522565b93602001610294565b90565b61023b565b34610f1d57610f07610f01366004610ec1565b9061280c565b610f0f610231565b80610f198161056b565b0390f35b610237565b9091606082840312610f5757610f54610f3d845f850161026e565b93610f4b8160208601610522565b93604001610294565b90565b61023b565b34610f8d57610f89610f78610f72366004610f22565b91612818565b610f80610231565b918291826103aa565b0390f35b610237565b60018060a01b031690565b610fad906008610fb2930261034f565b610f92565b90565b90610fc09154610f9d565b90565b610fcd5f80610fb5565b90565b610fd99061024e565b9052565b9190610ff0905f60208501940190610fd0565b565b34611022576110023660046105a4565b61101e61100d610fc3565b611015610231565b91829182610fdd565b0390f35b610237565b906020828203126110405761103d915f01610522565b90565b61023b565b9061104f906102fb565b5f5260205260405f2090565b6110719061106c6001915f92611045565b61036e565b90565b346110a4576110a061108f61108a366004611027565b61105b565b611097610231565b918291826103aa565b0390f35b610237565b909182601f830112156110e35781359167ffffffffffffffff83116110de5760200192602083028401116110d957565b6107dd565b6107d9565b6107d5565b90602082820312611119575f82013567ffffffffffffffff81116111145761111092016110a9565b9091565b61023f565b61023b565b346111345761112e3660046110e8565b90612900565b610237565b346111675761115161114c366004611027565b61294c565b611159610231565b806111638161056b565b0390f35b610237565b91906040838203126111945780611188611191925f860161026e565b9360200161026e565b90565b61023b565b906111a3906102fb565b5f5260205260405f2090565b906111b9906102fb565b5f5260205260405f2090565b60ff1690565b6111db9060086111e0930261034f565b6111c5565b90565b906111ee91546111cb565b90565b61120a61120f926112056003935f94611199565b6111af565b6111e3565b90565b346112435761123f61122e61122836600461116c565b906111f1565b611236610231565b91829182610454565b0390f35b610237565b3461125e576112583660046110e8565b9061297f565b610237565b61126f60025f90610fb5565b90565b346112a2576112823660046105a4565b61129e61128d611263565b611295610231565b91829182610fdd565b0390f35b610237565b346112bc576112b7366004610638565b6129cb565b610237565b346112ef576112d96112d43660046108fb565b612a62565b6112e1610231565b806112eb8161056b565b0390f35b610237565b9190606083820312611340576113399061130e60606106c8565b9361131b825f8301610b8b565b5f86015261132c8260208301610cc2565b6020860152604001610df9565b6040830152565b61067d565b91610120838303126113945761135d825f8501610760565b9261136b8360a083016112f4565b9261010082013567ffffffffffffffff811161138f5761138b92016107e1565b9091565b61023f565b61023b565b346113cd576113c96113b86113af366004611345565b92919091612ccb565b6113c0610231565b918291826108ad565b0390f35b610237565b34611401576113eb6113e536600461049e565b91612d46565b6113f3610231565b806113fd8161056b565b0390f35b610237565b6080818303126114475761141c825f830161026e565b9261144461142d846020850161026e565b9361143b8160408601610294565b93606001610294565b90565b61023b565b346114805761147c61146b611462366004611406565b92919091612d74565b611473610231565b91829182610454565b0390f35b610237565b5f80fd5b5f90565b90565b60e01b90565b6114aa6114a56114af9261148d565b611490565b6103f5565b90565b90565b6114c96114c46114ce926114b2565b611490565b6103f5565b90565b6114d9611489565b50806114f16114eb6301ffc9a7611496565b916103f5565b149081156114fe575b5090565b9050611516611510630f632fb36114b5565b916103f5565b145f6114fa565b5f1c90565b61152e6115339161151d565b610353565b90565b6115409054611522565b90565b634e487b7160e01b5f52601160045260245ffd5b61156661156c9193929361027d565b9261027d565b820391821161157757565b611543565b5f1b90565b9061158d5f199161157c565b9181191691161790565b90565b906115af6115aa6115b69261031d565b611597565b8254611581565b9055565b6115c96115cf9193929361027d565b9261027d565b82018092116115da57565b611543565b9160206116009294936115f960408201965f830190610fd0565b019061039d565b565b919061160c611489565b5061163f8261163961162a61162360043390610307565b8590610339565b9161163483611536565b611557565b9061159a565b6116718261166b61165c61165560048890610307565b8590610339565b9161166683611536565b6115ba565b9061159a565b3392339091926116b36116ad6116a77f1b3d7edb2e9c0b0e7c525b20aaaef0f5940d2ed71663c7d39266ecafac728859946102fb565b946102fb565b9461031d565b946116c86116bf610231565b928392836115df565b0390a4600190565b91906116e36116dd612f10565b15610442565b6116f2576116f092611713565b565b6354e3ca0d60e01b612f3e565b600f0b90565b611710905f036116ff565b90565b9161173c926117348161172d61172885612fa0565b611705565b3391613003565b919091613099565b565b9061174992916116d0565b565b5f90565b61176061175a612f10565b15610442565b6117705761176d9061177d565b90565b6354e3ca0d60e01b612f3e565b5061178733613160565b90565b61179a61179561174b565b61174f565b90565b91906117b06117aa612f10565b15610442565b6117bf576117bd926117cc565b565b6354e3ca0d60e01b612f3e565b90916118006117dd6118079461320c565b926117fa846117f36117ee86612fa0565b611705565b3391613003565b92613259565b90916132a6565b565b90611814929161179d565b565b5f90565b611822611816565b50545f5260205ff35b5f90565b949392919061184561183f612f10565b15610442565b6118555761185295611862565b90565b6354e3ca0d60e01b612f3e565b90611878959493929161187361334a565b6118b7565b90565b6118859051610731565b90565b61189190610612565b90565b9160206118b59294936118ae60408201965f83019061039d565b019061039d565b565b9261197994919396959296506118cc8461339d565b966119066118d9896133ad565b6118e2816133e7565b6118fe6118f16080890161187b565b8885879089928b946135ea565b8284916136ba565b97611913868a33916137e1565b3382918461194a6119447f29ef05caaff9404b7cb6d1c0e9bbae9eaa7ab2541feba1a9c4248594c08156cb93611888565b936102fb565b9361195f611956610231565b92839283611894565b0390a361196e6080860161187b565b949091929394613909565b565b906119909493929161198b61182b565b61182f565b90565b61199f6119a49161151d565b610f92565b90565b6119b19054611993565b90565b60209181520190565b5f7f554e415554484f52495a45440000000000000000000000000000000000000000910152565b6119f1600c6020926119b4565b6119fa816119bd565b0190565b611a139060208101905f8183039101526119e4565b90565b15611a1d57565b611a25610231565b62461bcd60e51b815280611a3b600482016119fe565b0390fd5b611a6c90611a6733611a61611a5b611a565f6119a7565b61024e565b9161024e565b14611a16565b611aac565b565b90611a7f60018060a01b039161157c565b9181191691161790565b90565b90611aa1611a9c611aa8926102fb565b611a89565b8254611a6e565b9055565b611ab7816002611a8c565b611ae17fb4bd8ef53df690b9943d3318996006dbb82a25f54719d8c8035b516a2a5b8acc916102fb565b90611aea610231565b80611af48161056b565b0390a2565b611b0290611a3f565b565b606090565b611b11611b04565b5060405191600160206040858460051b948382528382015201928301925b845481520192018382841015611b5057506001602083949091929450611b2f565b80830390f35b90611b68611b62612f10565b15610442565b611b7857611b7591611b85565b90565b6354e3ca0d60e01b612f3e565b90611b909150613160565b90565b611ba490611b9f61174b565b611b56565b90565b9190611bb1611489565b50611bdb82611bd6611bcf611bc860053390610c37565b8790610307565b8490610339565b61159a565b3392909192611c31611c1f611c19611c137fb3fd5071835887567a0671151121894ddccc2842f1d10bedad13e0d17cace9a7946102fb565b946102fb565b9461031d565b94611c28610231565b918291826103aa565b0390a4600190565b606090565b611c47906102d3565b90565b611c5390611c3e565b90565b611c5f906102ef565b90565b5f80fd5b67ffffffffffffffff8111611c8457611c80602091610681565b0190565b61068b565b90929192611c9e611c9982611c66565b6106c8565b93818552602085019082840111611cba57611cb892610a8c565b565b611c62565b9080601f83011215611cdd57816020611cda93519101611c89565b90565b6107d5565b90602082820312611d12575f82015167ffffffffffffffff8111611d0d57611d0a9201611cbf565b90565b61023f565b61023b565b90825f939282370152565b9190611d3c81611d3581611d4195610a83565b8095611d17565b610681565b0190565b9091611d5c9260208301925f818503910152611d22565b90565b611d67610231565b3d5f823e3d90fd5b90565b611d86611d81611d8b92611d6f565b6102d0565b61027d565b90565b90611d97611c39565b50611da0612f10565b611e5e575f90611dae613919565b611dbf611dba33611c4a565b611c56565b611de2836391dd7346959395611ded611dd6610231565b97889687958694611490565b845260048401611d45565b03925af1908115611e59575f91611e37575b5090611e0961393f565b611e1b611e155f611d72565b9161027d565b03611e2a57611e2861396d565b565b635212cba160e01b612f3e565b611e5391503d805f833e611e4b818361069f565b810190611ce2565b5f611dff565b611d5f565b6328486b6360e11b612f3e565b611e7590516106dd565b90565b611e81906102ef565b90565b90611e8e90611888565b5f5260205260405f2090565b90565b90611ebb611eb5611eb060408501611e6b565b6139c0565b15610442565b8015611f01575b611ef457611eed611ee8611ee1611ef294611edc856139e6565b61339d565b6006611e84565b611e9a565b613a42565b565b6330d2164160e01b612f3e565b5033611f28611f22611f1d611f186080870161187b565b611e78565b61024e565b9161024e565b1415611ec2565b90611f3b60ff9161157c565b9181191691161790565b611f4e90610442565b90565b90565b90611f69611f64611f7092611f45565b611f51565b8254611f2f565b9055565b90611f7d611489565b50611f9d81611f98611f9160033390611199565b85906111af565b611f54565b33919091611fe9611fd7611fd17fceb576d9f15e4e200fdb5096d64d5dfd667e16def20c1eefd14256d8e3faa267936102fb565b936102fb565b93611fe0610231565b91829182610454565b0390a3600190565b9493929190612007612001612f10565b15610442565b6120185761201495612025565b9091565b6354e3ca0d60e01b612f3e565b9061203b959493929161203661334a565b61211e565b9091565b6120499051610708565b90565b6120569051610881565b90565b6120639051610612565b90565b61207060c06106c8565b90565b9061207d9061024e565b9052565b9061208b90610708565b9052565b90612099906116ff565b9052565b906120a790610612565b9052565b6120b490610881565b9052565b6120ed6120f4946120e36060949897956120d9608086019a5f870190610e35565b6020850190610e35565b60408301906120ab565b0190610656565b565b61210a61210561210f92611d6f565b6102d0565b610881565b90565b61211b5f6120f6565b90565b946122ba9296946122dd94926122199750506121398861339d565b926122105f8a61216b61216060806121508a6133ad565b9361215a856133e7565b0161187b565b8d8688918a93613cd5565b61217361182b565b5061220b8c612202866121f933936121f0836121e76121938b830161203f565b6121de6121cd60606121c6816121bf6121ba60406121b360208c0161203f565b9a0161204c565b613ce4565b990161203f565b9901612059565b996121d6612066565b9d8e01612073565b60208c01612081565b60408a01612081565b6060880161208f565b60808601612081565b60a0840161209d565b613e16565b9890899061420f565b93336122265f840161203f565b916122336020850161203f565b61223f6040860161204c565b9361229461224f60608801612059565b61228261227c7ff208f4912782fd25c7f114ca3723a2d5dd6f3bcc3ac8db5af63baa85f711d5ec96611888565b966102fb565b9661228b610231565b948594856120b8565b0390a361229f61182b565b506122ac60808a0161187b565b938991909189939495614372565b9490946122cf816122c9612112565b9061452f565b6122df575b508433916137e1565b565b6122ff9082906122f96122f46080860161187b565b611e78565b916137e1565b5f6122d4565b9061232293929161231461182b565b61231c61182b565b90611ff1565b9091565b5f90565b9061233d929161233861334a565b612433565b90565b60010b90565b61235a61235561235f92612340565b6102d0565b610708565b90565b61236d617fff612346565b90565b612378612362565b90565b90565b61239261238d6123979261237b565b6102d0565b610708565b90565b6123a4600161237e565b90565b6123af61239a565b90565b6123bc905161024e565b90565b6123c8906106dd565b9052565b6123d590611e78565b9052565b6123e290610243565b9052565b909594926124319461242061242a9261241660809661240c60a088019c5f8901906123bf565b6020870190610e35565b60408501906123cc565b60608301906123d9565b0190610e35565b565b929192506124436060820161203f565b61245c612456612451612370565b610708565b91610708565b136126555761246d6060820161203f565b61248661248061247b6123a7565b610708565b91610708565b1261263b576124ab6124995f83016123b2565b6124a5602084016123b2565b9061456d565b612605576124d96124d36124c16080840161187b565b6124cd60408501611e6b565b906146a1565b15610442565b6125e357806124f56124f060406125e19401611e6b565b614870565b9361250d6125056080840161187b565b8383916149a2565b6125376125198361339d565b9561252e61252960068990611e84565b611e9a565b908390916149cb565b946125435f84016123b2565b61254f602085016123b2565b9061255c60408601611e6b565b926125696060870161203f565b6125756080880161187b565b946125ca878c906125b86125b26125ac7fdd466e674ea557f56295e2d0218a125ea4b4f0f6f3307b95f85e6110838d643898611888565b986102fb565b986102fb565b986125c1610231565b958695866123e6565b0390a46125d96080830161187b565b918592614b69565b565b6125ff6125fa6080630732d7b560e51b930161187b565b611e78565b90614842565b6306e6c98360e41b9061263561263060206126296126245f86016123b2565b6102fb565b93016123b2565b6102fb565b9161459e565b61264f6060631d3d20b160e31b920161203f565b90614560565b61266960606316e0049f60e31b920161203f565b90614560565b906126819161267c612326565b61232a565b90565b61269861269361269d926106dd565b6102d0565b610243565b90565b91906126b3905f602085019401906123bf565b565b336126d16126cb6126c660026119a7565b61024e565b9161024e565b03612764576126e86126e283614b77565b15610442565b61274c576126f59061339d565b612708612701826133ad565b8390614baa565b6127476127357fe9c42593e71f84403b84352cd168d693e2c9fcd1fdbcc3feb21d92b43e6696f992611888565b9261273e610231565b918291826126a0565b0390a2565b5061275e63a7abe2f760e01b91612684565b90614b98565b6348f5c3ed60e01b612f3e565b9061278361277d612f10565b15610442565b61279257612790916127bb565b565b6354e3ca0d60e01b612f3e565b6127b36127ae6127b8926116ff565b6102d0565b610881565b90565b906127d06127ca833390614bd4565b91612fa0565b906127e46127de8392610881565b9161279f565b036127ff576127f66127fd9291611705565b3391613003565b565b63bda73abf60e01b612f3e565b9061281691612771565b565b9291909261282461174b565b503361284161283b61283660026119a7565b61024e565b9161024e565b036128f35761285861285285614bfe565b15610442565b806128db575b6128ce57816128c7926128796128735f611d72565b9161027d565b145f146128c9575061289561289060018690611045565b611536565b5b936128bf856128b96128aa60018590611045565b916128b483611536565b611557565b9061159a565b908491613099565b565b612896565b6318f3cb2960e31b612f3e565b506128ee6128e7614c35565b8590614c63565b61285e565b6348f5c3ed60e01b612f3e565b90612909611b04565b50604051916020806040858281528583820152019360051b840192935b84355c815201920183828410156129465750602080839490929450612926565b80830390f35b61295581614bfe565b5f146129675750612964614dfd565b5b565b8061297461297a92614cf0565b90614daf565b612965565b90612988611b04565b50604051916020806040858281528583820152019360051b840192935b843554815201920183828410156129c557506020808394909294506129a5565b80830390f35b6129d3611816565b505c5f5260205ff35b612a0990612a04336129fe6129f86129f35f6119a7565b61024e565b9161024e565b14611a16565b612a0b565b565b612a15815f611a8c565b3390612a4a612a447f8be0079c531659141344cd1fd0a4f28419497f9722a3daafe3b4186f6b6457e0936102fb565b916102fb565b91612a53610231565b80612a5d8161056b565b0390a3565b612a6b906129dc565b565b93929190612a82612a7c612f10565b15610442565b612a9257612a8f94612a9f565b90565b6354e3ca0d60e01b612f3e565b90612ab494939291612aaf61334a565b612b22565b90565b5f90565b5f90565b5f90565b612acd9051610442565b90565b612ada9051610243565b90565b612ae760a06106c8565b90565b90612af490610881565b9052565b90612b0290610442565b9052565b90612b1090610243565b9052565b90612b1e906106dd565b9052565b949391909450612b346020820161204c565b612b46612b405f6120f6565b91610881565b14612cbe57612bc6612c6192612c8494612c3f612b628961339d565b858a612c1c612b70846133ad565b612b79816133e7565b612b81612ab7565b50612b8a612abb565b50612b93612abf565b50612c136060612c0a612bb7612bab6080880161187b565b8c8c898b919293614f18565b9d919d93909d9599970161203f565b93612c01612be26040612bda5f8c01612ac3565b939a01612ad0565b9395612bf8612bef612add565b9a5f8c01612aea565b60208a01612081565b60408801612af8565b60608601612b06565b60808401612b14565b612c275f8901612ac3565b5f14612cac57612c385f8d016123b2565b925b615185565b612c4761182b565b50612c5460808a0161187b565b94899091929394956152f2565b939093612c7681612c70612112565b9061452f565b612c86575b508333916137e1565b565b612ca6908290612ca0612c9b6080860161187b565b611e78565b916137e1565b5f612c7b565b612cb860208d016123b2565b92612c3a565b63be8b850760e01b612f3e565b90612cdf939291612cda61182b565b612a6d565b90565b9190612cf5612cef612f10565b15610442565b612d0457612d0292612d11565b565b6354e3ca0d60e01b612f3e565b9091612d3d612d22612d449461320c565b92612d3784612d3085612fa0565b3391613003565b92613259565b90916154af565b565b90612d519291612ce2565b565b612d5f612d649161151d565b6111c5565b90565b612d719054612d53565b90565b929190612d7f611489565b5033612d93612d8d8661024e565b9161024e565b141580612ee3575b612e62575b612dd283612dcc612dbd612db660048990610307565b8690610339565b91612dc783611536565b611557565b9061159a565b612e0483612dfe612def612de860048690610307565b8690610339565b91612df983611536565b6115ba565b9061159a565b3393909192612e45612e3f612e397f1b3d7edb2e9c0b0e7c525b20aaaef0f5940d2ed71663c7d39266ecafac728859946102fb565b946102fb565b9461031d565b94612e5a612e51610231565b928392836115df565b0390a4600190565b612e8a612e85612e7e612e7760058890610c37565b3390610307565b8490610339565b611536565b80612e9e612e985f1961027d565b9161027d565b03612eaa575b50612da0565b612eb8612edd918590611557565b612ed8612ed1612eca60058990610c37565b3390610307565b8590610339565b61159a565b5f612ea4565b50612f0b612f05612f00612ef960038890611199565b33906111af565b612d67565b15610442565b612d9b565b612f18611489565b507fc090fc4683624cfc3884e9d8de5eca132f2d0ec062aff75d43c0465d5ceeab235c90565b5f5260045ffd5b5f90565b90565b612f60612f5b612f6592612f49565b6102d0565b61027d565b90565b612f7c612f77612f819261027d565b6102d0565b610881565b90565b612f98612f93612f9d92610881565b6102d0565b6116ff565b90565b612fa8612f45565b5080612fc0612fba6001607f1b612f4c565b9161027d565b1015612fda57612fd2612fd791612f68565b612f84565b90565b6393dafdf160e01b612f3e565b612ffb612ff661300092611d6f565b6102d0565b6116ff565b90565b9190806130186130125f612fe7565b916116ff565b14613078576130299291909161558f565b61303b6130355f6120f6565b91610881565b145f1461304e575061304b615612565b5b565b61306061305a5f6120f6565b91610881565b1461306b575b61304c565b6130736155c9565b613066565b505050565b61309161308c61309692611d6f565b611490565b6103f5565b90565b9190916130a4611489565b506130ae81614bfe565b5f146130e557505f8080806130c694865af115610442565b6130ce57505b565b6130d75f61307d565b633d2cec6f60e21b9161565b565b91613137916040519163a9059cbb60e01b835260018060a01b0316600483015260248201525f604060208260448582895af13d15601f3d11600185511416171692828152826020820152015215610442565b61314157506130cc565b61314a906102fb565b63a9059cbb60e01b633c9fd93960e21b9161565b565b9061316961174b565b50613172614c35565b9161317c83614bfe565b5f1461319c5761319a9034935b9061319385612fa0565b9091613003565b565b346131af6131a95f611d72565b9161027d565b116131df5761319a906131d16131c36156cc565b6131cc86614cf0565b611557565b936131da614dfd565b613189565b635876424f60e11b612f3e565b5f90565b6132046131ff6132099261027d565b6102d0565b610243565b90565b61322961322461322e9261321e6131ec565b506131f0565b6102ef565b6102fb565b90565b61323a906102d3565b90565b61325161324c61325692610243565b6102d0565b61027d565b90565b61327661327161327b9261326b61174b565b506102fb565b613231565b61323d565b90565b61329261328d61329792611d6f565b6102d0565b610243565b90565b6132a39061327e565b90565b91906132da826132d46132c56132be60048890610307565b8590610339565b916132cf83611536565b6115ba565b9061159a565b33926132e55f61329a565b90919261332461331e6133187f1b3d7edb2e9c0b0e7c525b20aaaef0f5940d2ed71663c7d39266ecafac728859946102fb565b946102fb565b9461031d565b94613339613330610231565b928392836115df565b0390a4565b613347906102ef565b90565b6133533061333e565b61338561337f7f000000000000000000000000000000000000000000000000000000000000000061024e565b9161024e565b0361338c57565b6306c4a1c760e11b612f3e565b5f90565b60a0906133a8613399565b502090565b6133bb6133c0916006611e84565b611e9a565b90565b90565b6133d26133d79161151d565b6133c3565b90565b6133e490546133c6565b90565b6133f55f6133fa92016133da565b6156fe565b61340c6134065f61327e565b91610243565b1461341357565b63486aa30760e01b612f3e565b94939291908561344161343b6134363393611e78565b61024e565b9161024e565b0361344f575b505050505050565b61345895613571565b5f8080808080613447565b90565b61347a61347561347f92613463565b6102d0565b610243565b90565b61348c6020613466565b90565b613498906102fb565b9052565b6134a5906106dd565b9052565b6134b290610708565b9052565b6134bf90611e78565b9052565b9060808061351b936134db5f8201515f86019061348f565b6134ed6020820151602086019061348f565b6134ff6040820151604086019061349c565b613511606082015160608601906134a9565b01519101906134b6565b565b919361355661356092969461354c61356e999761354261012088019a5f890190610fd0565b60208701906134c3565b60c085019061039d565b60e083019061039d565b610100818503910152611d22565b90565b949193929461358881613582613482565b90615712565b613595575b505050505050565b6135de956135d9936135ca9295339497929091926135b1610231565b988996600460208901635b54587d60e11b81520161351d565b6020820181038252038361069f565b6157be565b505f808080808061358d565b906135f89594939291613420565b565b6fffffffffffffffffffffffffffffffff1690565b61361b6136209161151d565b6135fa565b90565b61362d905461360f565b90565b6fffffffffffffffffffffffffffffffff1690565b61365961365461365e92611d6f565b6102d0565b613630565b90565b90565b61367861367361367d92613661565b6102d0565b61027d565b90565b61368d600160801b613664565b90565b6136a461369f6136a992613630565b6102d0565b61027d565b90565b906136b7910161027d565b90565b929190926136c661182b565b506136d360038201613623565b91826136e76136e15f613645565b91613630565b146137d4576137176137006136fb87612fa0565b611705565b61371161370c84612fa0565b611705565b9061588f565b948061372b6137255f611d72565b9161027d565b11613794575b508061374561373f5f611d72565b9161027d565b11613750575b505050565b600261377561378c94613786939061376f613769613680565b91613690565b916158a9565b92019161378183611536565b6136ac565b9061159a565b5f808061374b565b6137b26137ce916137a3613680565b6137ac87613690565b916158a9565b6137c860018501916137c383611536565b6136ac565b9061159a565b5f613731565b63a74f97ab60e01b612f3e565b91613818613812602061381f9561380c6137fc5f83016123b2565b613805886158b7565b8791613003565b016123b2565b926158c6565b9091613003565b565b94939291908561384261383c6138373393611e78565b61024e565b9161024e565b03613850575b505050505050565b61385995613890565b5f8080808080613848565b90565b61387b61387661388092613864565b6102d0565b610243565b90565b61388d6010613867565b90565b94919392946138a7816138a1613883565b90615712565b6138b4575b505050505050565b6138fd956138f8936138e99295339497929091926138d0610231565b98899660046020890163e1b4af6960e01b81520161351d565b6020820181038252038361069f565b6157be565b505f80808080806138ac565b906139179594939291613821565b565b60017fc090fc4683624cfc3884e9d8de5eca132f2d0ec062aff75d43c0465d5ceeab235d565b61394761174b565b507f7d4b3164c6e45b97e7d87b7125a44c5828d005af88f9d751cfd78729c5d99a0b5c90565b5f7fc090fc4683624cfc3884e9d8de5eca132f2d0ec062aff75d43c0465d5ceeab235d565b90565b6139a96139a46139ae92613992565b6102d0565b6106dd565b90565b6139bd62800000613995565b90565b6139c8611489565b506139e26139dc6139d76139b1565b6106dd565b916106dd565b1490565b6139f86139f282615903565b15610442565b6139ff5750565b613a10631400211360e01b91612684565b90614b98565b613a1f9061151d565b90565b90613a37613a32613a3e92611888565b613a16565b8254611581565b9055565b5f613a63613a6a93613a53846133e7565b613a5e8385016133da565b61592e565b9101613a22565b565b9392919084613a8c613a86613a813393611e78565b61024e565b9161024e565b03613a99575b5050505050565b613aa294613ba1565b5f80808080613a92565b90565b613ac3613abe613ac892613aac565b6102d0565b610243565b90565b613ad6610800613aaf565b90565b90565b613af0613aeb613af592613ad9565b6102d0565b610243565b90565b613b03610200613adc565b90565b613b0f90610881565b9052565b90606080613b5993613b2b5f8201515f8601906134a9565b613b3d602082015160208601906134a9565b613b4f60408201516040860190613b06565b0151910190610979565b565b909391613b9e9593613b86613b9092613b7c6101608601985f870190610fd0565b60208501906134c3565b60c0830190613b13565b610140818503910152611d22565b90565b9391929093613bb26040850161204c565b613bc4613bbe5f6120f6565b91610881565b1380613cbd575b5f14613c1d5793613c05613c1492613c199694339396919091613bec610231565b97889560046020880163259982e560e01b815201613b5b565b6020820181038252038361069f565b6157be565b505b565b93613c2a6040850161204c565b613c3c613c365f6120f6565b91610881565b131580613ca5575b613c53575b5050505050613c1b565b613c86613c9592613c9a9694339396919091613c6d610231565b97889560046020880163021d0ee760e41b815201613b5b565b6020820181038252038361069f565b6157be565b505f80808080613c49565b50613cb885613cb2613af8565b90615712565b613c44565b50613cd081613cca613acb565b90615712565b613bcb565b90613ce294939291613a6c565b565b90613ced612f45565b50613cf782612f84565b91613d0b613d058492610881565b9161279f565b03613d1257565b6393dafdf160e01b612f3e565b613d2990516116ff565b90565b613d3660806106c8565b90565b5f90565b5f90565b613d49613d2c565b90602080808085613d58613d39565b815201613d63613d3d565b815201613d6e613d39565b815201613d79613d3d565b81525050565b613d87613d41565b90565b90613d9490613630565b9052565b613da29051613630565b90565b613daf905161024e565b90565b90613dcd6fffffffffffffffffffffffffffffffff9161157c565b9181191691161790565b613deb613de6613df092613630565b6102d0565b613630565b90565b90565b90613e0b613e06613e1292613dd7565b613df3565b8254613db2565b9055565b91613e1f61182b565b92613e2861182b565b50613e3560608401613d1f565b613e416020850161203f565b613e4d6040860161203f565b92613e598285906159ab565b613e61613d7f565b9583613e75613e6f5f612fe7565b916116ff565b036140b2575b613ed2613ed8613ecb613ec1613ede94613e9787898c91615cbb565b9290929160068901908c8b613ebb60a0613eb25f8601613da5565b92939401612059565b93615e68565b9189909192615e8c565b9290612fa0565b91612fa0565b9061588f565b9583613ef2613eec5f612fe7565b916116ff565b1261406b575b5082613f0c613f065f612fe7565b916116ff565b03613f18575b50505050565b909192939550613f295f82016133da565b613f3b613f358261604c565b916156fe565b9080613f4f613f4986610708565b91610708565b125f14613f9c57505050613f9192613f8292613f76613f70613f7d94616544565b92616544565b9091616dcf565b613ce4565b613f8b5f612fe7565b9061588f565b915b5f808080613f12565b969490919396613fb4613fae83610708565b91610708565b125f14614027576140096140219493614003613ffe85613ff6613ff0613feb61401a988f613fe460039c92616544565b9091616dcf565b613ce4565b94616544565b908c91616d4f565b613ce4565b9061588f565b96614015838501613623565b616e4f565b9101613df6565b5b613f93565b61406092935061405a915061405590614065959761404e6140485f97616544565b92616544565b9091616d4f565b613ce4565b91612fe7565b61588f565b91614022565b60408161407c5f6140879401612ac3565b6140a2575b01612ac3565b614092575b5f613ef8565b61409d818590616034565b61408c565b6140ad848690616034565b614081565b6140da6140c3838587905f92615adf565b906140d45f8b019260208c01613d8a565b90612af8565b6141046140ec83878790600192615adf565b906140fe60408b019260608c01613d8a565b90612af8565b836141176141115f612fe7565b916116ff565b1215614198575b613ed2613ed8613ecb613ec1613ede946141395f8d01612ac3565b614179575b61414a60408d01612ac3565b61415a575b945050505050613e7b565b614174600588018b61416e6080850161203f565b91615c61565b61414f565b614193600588018961418d6080850161203f565b91615c61565b61413e565b6141ac6141a76080830161203f565b615c27565b6141b860208901613d98565b6141ca6141c483613630565b91613630565b11614201576141ed6141e76141e160608b01613d98565b92613630565b91613630565b111561411e578463b8e3c38560e01b614560565b8363b8e3c38560e01b614560565b9061425661425061425c9361422261182b565b5061422b612abb565b50614234612abb565b508060801d90600f0b938060801d90600f0b9101930192613ce4565b91613ce4565b9061588f565b90565b90565b61427661427161427b9261425f565b6102d0565b610243565b90565b614289610100614262565b90565b926142ed97959196946142c96142d4926142bf6142df966142b56101a08a019c5f8b0190610fd0565b60208901906134c3565b60c0870190613b13565b6101408501906108a0565b6101608301906108a0565b610180818503910152611d22565b90565b6143046142ff6143099261237b565b6102d0565b610243565b90565b61431660016142f0565b90565b90565b61433061432b61433592614319565b6102d0565b610243565b90565b61434361040061431c565b90565b90565b61435d61435861436292614346565b6102d0565b610243565b90565b61436f6002614349565b90565b919296949661437f61182b565b5061438861182b565b96336143a461439e61439987611e78565b61024e565b9161024e565b1461451a5781986143b76040870161204c565b6143c96143c35f6120f6565b91610881565b135f14614474576143e2856143dc614338565b90615712565b6143f1575b505050505050505b565b6144679799985061445a95936144376144549487946144469461445f9b339599939091929361441e610231565b9a8b97600460208a016327c18fbf60e21b81520161428c565b6020820181038252038461069f565b61444e614365565b90615712565b91616e89565b610884565b918290616ef1565b915f8080808080806143e7565b6144868561448061427e565b90615712565b614497575b505050505050506143ef565b61450d9799985061450095936144dd6144fa9487946144ec946145059b33959993909192936144c4610231565b9a8b97600460208a01633615df3f60e11b81520161428c565b6020820181038252038461069f565b6144f461430c565b90615712565b91616e89565b610884565b918290616ef1565b915f80808080808061448b565b5095505050505091509061452c612112565b90565b61455561455061454a61455b93614544611489565b50610884565b93610884565b610881565b91610881565b141590565b5f5260020b60045260245ffd5b61459361458e61458861459993614582611489565b506102fb565b936102fb565b61024e565b9161024e565b101590565b8260449260405192835260018060a01b0316600483015260018060a01b03166024820152fd5b90565b6145db6145d66145e0926145c4565b6102d0565b610243565b90565b6145ed60806145c7565b90565b90565b61460761460261460c926145f0565b6102d0565b610243565b90565b61461960086145f3565b90565b90565b61463361462e6146389261461c565b6102d0565b610243565b90565b614645604061461f565b90565b90565b61465f61465a61466492614648565b6102d0565b610243565b90565b614671600461464b565b90565b90565b61468b61468661469092614674565b6102d0565b610243565b90565b61469e613fff614677565b90565b6146a9611489565b506146c56146bf826146b96145e3565b90615712565b15610442565b8061482a575b614824576146ea6146e4826146de61463b565b90615712565b15610442565b8061480c575b6148065761470f61470982614703614338565b90615712565b15610442565b806147ee575b6147e85761473461472e8261472861427e565b90615712565b15610442565b806147d0575b6147ca5761474781611e78565b61476161475b6147565f61329a565b61024e565b9161024e565b145f1461477f575061477561477b916139c0565b15610442565b5b90565b61478b61479091611e78565b613231565b614798614693565b166147ab6147a55f61327e565b91610243565b119081156147ba575b5061477c565b6147c491506139c0565b5f6147b4565b50505f90565b506147e3816147dd61430c565b90615712565b61473a565b50505f90565b50614801816147fb614365565b90615712565b614715565b50505f90565b5061481f81614819614667565b90615712565b6146f0565b50505f90565b5061483d8161483761460f565b90615712565b6146cb565b5f5260018060a01b031660045260245ffd5b61486861486361486d92611d6f565b6102d0565b6106dd565b90565b614878612abf565b50614882816139c0565b6148925761488f816139e6565b90565b5061489c5f614854565b90565b9190826148bd6148b76148b23393611e78565b61024e565b9161024e565b036148c8575b505050565b6148d192614938565b5f80806148c3565b90565b6148f06148eb6148f5926148d9565b6102d0565b610243565b90565b6149036120006148dc565b90565b60c09061492f614936949695939661492560e08401985f850190610fd0565b60208301906134c3565b01906123d9565b565b919061494c836149466148f8565b90615712565b614956575b505050565b614994614999939161498533919461496c610231565b958693600460208601636e4c1aa760e11b815201614906565b6020820181038252038361069f565b6157be565b505f8080614951565b906149ad929161489f565b565b6149c36149be6149c892611d6f565b61157c565b610612565b90565b929190926149d7612326565b506149eb6149e65f83016133da565b6156fe565b6149fd6149f75f61327e565b91610243565b03614a45575f614a3c614a4393614a37614a30614a19896171b7565b98614a2b614a26876149af565b611888565b61748e565b88906174ae565b61592e565b9101613a22565b565b637983c05160e01b612f3e565b92919083614a71614a6b614a663393611e78565b61024e565b9161024e565b03614a7d575b50505050565b614a8693614afb565b5f808080614a77565b90565b614aa6614aa1614aab92614a8f565b6102d0565b610243565b90565b614ab9611000614a92565b90565b614af2614af994614ae860e094989795614ade61010086019a5f870190610fd0565b60208501906134c3565b60c08301906123d9565b0190610e35565b565b929092614b1081614b0a614aae565b90615712565b614b1b575b50505050565b614b5f93614b4b614b5a9293339295614b32610231565b968794600460208701636fe7e6eb60e01b815201614abc565b6020820181038252038361069f565b6157be565b505f808080614b15565b90614b75939291614a52565b565b614b7f611489565b50623e900062fff0006103e9610fff8416109216101690565b5f5260018060a01b031660045260245ffd5b5f614bcb614bd293614bbb846133e7565b614bc68385016133da565b6174ce565b9101613a22565b565b614be691614be0612abb565b506174ee565b5c90565b614bfb614bf65f61329a565b6102fb565b90565b614c1090614c0a611489565b506102fb565b614c31614c2b614c26614c21614bea565b6102fb565b61024e565b9161024e565b1490565b614c3d6131ec565b507f27e098c505d44ec3574004bca052aabf76bd35004c182099d8c575fb238593b95c90565b614c89614c84614c7e614c8f93614c78611489565b506102fb565b936102fb565b61024e565b9161024e565b1490565b614c9c906102d3565b90565b614ca890614c93565b90565b614cb4906102ef565b90565b614cc0906102ef565b90565b90505190614cd082610280565b565b90602082820312614ceb57614ce8915f01614cc3565b90565b61023b565b614cf861174b565b50614d0281614bfe565b5f14614d165750614d1230614cb7565b3190565b6020614d34614d2f614d2a614d66946102fb565b614c9f565b614cab565b6370a0823190614d5b614d4630614cb7565b92614d4f610231565b95869485938493611490565b835260048301610fdd565b03915afa908115614daa575f91614d7c575b5090565b614d9d915060203d8111614da3575b614d95818361069f565b810190614cd2565b5f614d78565b503d614d8b565b611d5f565b60018060a01b03167f27e098c505d44ec3574004bca052aabf76bd35004c182099d8c575fb238593b95d7f1e0745a7db1623981f0b2a5d4232364c00787266eb75ad546f190e6cebe9bd955d565b5f7f27e098c505d44ec3574004bca052aabf76bd35004c182099d8c575fb238593b95d565b614e2b5f6120f6565b90565b614e3790610442565b9052565b614e4490610243565b9052565b90604080614e7c93614e605f8201515f860190614e2e565b614e7260208201516020860190613b06565b0151910190614e3b565b565b909391614ec19593614ea9614eb392614e9f6101408601985f870190610fd0565b60208501906134c3565b60c0830190614e48565b610120818503910152611d22565b90565b90565b614edb614ed6614ee092614ec4565b6102d0565b61027d565b90565b614ef2614ef891939293610881565b92610881565b808301925f82851215818312169285129112151617614f1357565b611543565b94919294614f24612abb565b50614f2d612ab7565b94614f36612abf565b94614f436020820161204c565b9733614f5f614f59614f5487611e78565b61024e565b9161024e565b146150f857614f7684614f706145e3565b90615712565b614f82575b5050505050565b614fc5614fca93614fb6869333928996919091614f9d610231565b9788956004602088016315d7892d60e21b815201614e7e565b6020820181038252038361069f565b6157be565b91614fd483610a7f565b614fe7614fe16060614ec7565b9161027d565b036150eb57614ffb60406150009201611e6b565b6139c0565b6150d5575b6150179061501161460f565b90615712565b615025575b80808080614f7b565b61503991935061503490617524565b610884565b9161504383617535565b806150566150505f612fe7565b916116ff565b03615061575b61501c565b93806150836150899261507c6150765f6120f6565b91610881565b129661279f565b90614ee3565b935f146150bc57836150a361509d5f6120f6565b91610881565b135b6150af575f61505c565b637d05b8eb60e11b612f3e565b836150cf6150c95f6120f6565b91610881565b126150a5565b92506150176150e382617513565b939050615005565b631e048e1d60e01b612f3e565b505050505091509190615109614e22565b9291929190565b615119906116ff565b9052565b61512690613630565b9052565b919461517261517c9298979561516860a09661515e6151839a61515460c08a019e5f8b0190615110565b6020890190615110565b60408701906123d9565b606085019061511d565b6080830190610e35565b01906123bf565b565b91615199919261519361182b565b50617789565b939194909294929392806151b56151af5f611d72565b9161027d565b11615246575b505033916151c8856158b7565b6152406151d4876158c6565b926151e05f8201612ad0565b966151f960206151f260408501613d98565b930161203f565b909161522e6152287f40e9cecb9f5f1f1c5b9c97dec2917b7ee92e57ba5563708daca94dd84ad7112f98611888565b986102fb565b98615237610231565b9687968761512a565b0390a390565b61524f916181bb565b5f806151bb565b919361528f61529a9296946152856152a8999761527b61016088019a5f890190610fd0565b60208701906134c3565b60c0850190614e48565b6101208301906108a0565b610140818503910152611d22565b90565b6152b76152bd916116ff565b916116ff565b01906f7fffffffffffffffffffffffffffffff1982126f7fffffffffffffffffffffffffffffff8313176152ed57565b611543565b909695929493919661530261182b565b5061530b61182b565b503361532761532161531c85611e78565b61024e565b9161024e565b1461549b579087918661534261533c87617535565b966181e4565b966153558461534f61463b565b90615712565b61541d575b50505050505061536861182b565b948261537c6153765f612fe7565b916116ff565b14158015615402575b615391575b5050509190565b6153ec9395506153d26153cc6153c75f6153ad6020860161204c565b6153bf6153b9836120f6565b91610881565b129401612ac3565b610442565b91610442565b145f146153f457906153e39161588f565b5b928390616ef1565b5f808061538a565b6153fd9161588f565b6153e4565b50816154166154105f612fe7565b916116ff565b1415615385565b8361547061548f98999794615461615489989561547e95615484999833949892909192615448610231565b998a9660046020890163b47b2fb160e01b815201615256565b6020820181038252038461069f565b615478614667565b90615712565b91616e89565b613ce4565b906152ab565b905f858180868161535a565b5050505050909150906154ac612112565b90565b916154de9233816154c86154c28361024e565b9161024e565b141580615562575b6154e0575b509190916181f3565b565b6155086155036154fc6154f560058690610c37565b8490610307565b8690610339565b611536565b908161551d6155175f1961027d565b9161027d565b03615529575b506154d5565b61555661554f61553d61555b948790611557565b9261554a60058790610c37565b610307565b8690610339565b61159a565b5f80615523565b5061558a61558461557f61557860038690611199565b84906111af565b612d67565b15610442565b6154d0565b6155ad9193929361559e612abb565b506155a7612abb565b506174ee565b906155c4825c936155be859161279f565b90614ee3565b80925d565b60017f7d4b3164c6e45b97e7d87b7125a44c5828d005af88f9d751cfd78729c5d99a0b5c017f7d4b3164c6e45b97e7d87b7125a44c5828d005af88f9d751cfd78729c5d99a0b5d565b60017f7d4b3164c6e45b97e7d87b7125a44c5828d005af88f9d751cfd78729c5d99a0b5c037f7d4b3164c6e45b97e7d87b7125a44c5828d005af88f9d751cfd78729c5d99a0b5d565b826390bfb86560e01b92602080601f3d0104029260405194855260018060a01b0316600485015263ffffffff60e01b166024840152608060448401528160a00160648401523d60848401523d5f60a485013e60048260a40184015263ffffffff60e01b168160c40183015260e40190fd5b6156d461174b565b507f1e0745a7db1623981f0b2a5d4232364c00787266eb75ad546f190e6cebe9bd955c90565b5f90565b6157066156fa565b5060018060a01b031690565b61572761572c91615721611489565b50611e78565b613231565b1661573f6157395f61327e565b91610243565b141590565b60200190565b61575490516103f5565b90565b1b90565b61577561577061576a83610a7f565b92615744565b61574a565b9060048110615783575b5090565b61579b9063ffffffff60e01b90600403600802615757565b165f61577f565b6157b66157b16157bb92613463565b6102d0565b61027d565b90565b9190916157c9611c39565b506157d2611489565b506157e85f8085516020870182865af115610442565b61586e575060405191601f19603f3d011683016040523d83523d5f602085013e61581183610a7f565b61582461581e60206157a2565b9161027d565b10908115615841575b5061583457565b631e048e1d60e01b612f3e565b905061586661586061585b6158558661828e565b9361828e565b6103f5565b916103f5565b14155f61582d565b61588161587b8492611e78565b9161575b565b63a9e35b2f60e01b9161565b565b9061589861182b565b5060018060801b03169060801b1790565b6158b161174b565b50020490565b6158bf612f45565b5060801d90565b6158ce612f45565b50600f0b90565b90565b6158ec6158e76158f1926158d5565b6102d0565b6106dd565b90565b615900620f42406158d8565b90565b61590b611489565b5061592561591f61591a6158f4565b6106dd565b916106dd565b111590565b5f90565b9061593761592a565b5062ffffff1660d01b9062ffffff60d01b19161790565b90565b61596561596061596a9261594e565b6102d0565b610708565b90565b61597a620d89e719615951565b90565b90565b61599461598f6159999261597d565b6102d0565b610708565b90565b6159a8620d89e8615980565b90565b806159be6159b884610708565b91610708565b1215615a2057806159de6159d86159d361596d565b610708565b91610708565b12615a135750806159fe6159f86159f361599c565b610708565b91610708565b13615a065750565b63035aeeff60e31b614560565b63d5e2f7ab60e01b614560565b9063c4433ed560e01b91909161829f565b5f90565b615a49615a44615a4e92610708565b6102d0565b610708565b90565b90615a5b90615a35565b5f5260205260405f2090565b90565b60801c90565b600f0b90565b615a82615a8791615a6a565b615a70565b90565b615a949054615a76565b90565b615aa3615aa9916116ff565b916116ff565b9003906f7fffffffffffffffffffffffffffffff82136f7fffffffffffffffffffffffffffffff19831217615ada57565b611543565b9391909293615aec611489565b50615af5615a31565b50615b0c615b07600483018690615a51565b615a67565b91615b185f8401613623565b95615b245f8501615a8a565b92615b30888490616e4f565b9687615b44615b3e5f613645565b91613630565b14615b6a615b648b615b5e615b585f613645565b91613630565b14610442565b91610442565b141598615b7f615b795f613645565b91613630565b14615bc0575b50505f14615bb257615b9691615a97565b5b60801b6fffffffffffffffffffffffffffffffff8416179055565b615bbb916152ab565b615b97565b615be4615bde615bd9615bd45f86016133da565b61604c565b610708565b91610708565b1315615bf1575b80615b85565b615c18600282615c12615c096001615c219601611536565b60018a0161159a565b01611536565b6002860161159a565b5f615beb565b600190615c32615a31565b50615c3b61599c565b90615c4461596d565b9060020b90815f818307129105039105030160018060801b030490565b919060020b9060020b90818107615c8f5705908160081d5f52602052600160ff60405f2092161b8154189055565b601c906044926040519163d4d8f3e683526020830152604082015201fd5b90615cb8910361027d565b90565b929192615cc661174b565b50615ccf61174b565b50615ce6615ce1600483018490615a51565b615a67565b93615cfd615cf8600484018390615a51565b615a67565b92615d11615d0c5f85016133da565b61604c565b90615d25615d1f8392610708565b91610708565b125f14615d7557505050615d7190615d6b6002615d6481615d5d615d4b60018a01611536565b615d5760018801611536565b90615cad565b9701611536565b9201611536565b90615cad565b905b565b615d85615d8b9196949692610708565b91610708565b12155f14615ddd5750615dd690615dd06002615dc981615dc2615db060018a01611536565b615dbc60018801611536565b90615cad565b9701611536565b9201611536565b90615cad565b905b615d73565b92615e436002615e3c615e4994615e3683615e2f81615e28615e16615e0460018f01611536565b615e1060018901611536565b90615cad565b615e2260018c01611536565b90615cad565b9b01611536565b9201611536565b90615cad565b9201611536565b90615cad565b90615dd8565b90615e5990611888565b5f5260205260405f2090565b90565b91615e8994615e8494615e7e93929091926182bb565b90615e4f565b615e65565b90565b9391929093615e9961174b565b50615ea261174b565b50615eae5f8201613623565b9480615ec2615ebc5f612fe7565b916116ff565b145f14615f6e575084615edd615ed75f613645565b91613630565b14615f61576002615f5f925b615f58615f4e615f21615f0889615f0260018901611536565b90615cad565b8a90615f1b615f15613680565b92613690565b9061831f565b98615f3784615f31878901611536565b90615cad565b615f48615f42613680565b92613690565b9061831f565b966001850161159a565b910161159a565b565b632bbfae4960e21b612f3e565b615f5f92615f89615f8160029389616e4f565b5f8501613df6565b615ee9565b91906008615fa9910291615fa35f1984615757565b92615757565b9181191691161790565b9190615fc9615fc4615fd19361031d565b611597565b908354615f8e565b9055565b615fe791615fe161174b565b91615fb3565b565b5f60026160089282808201556160028360018301615fd5565b01615fd5565b565b634e487b7160e01b5f525f60045260245ffd5b905f0361602f5761602d90615fe9565b565b61600a565b61604561604a9260045f9301615a51565b61601d565b565b616054612326565b5060a01c60020b90565b61607261606d61607792610708565b6102d0565b610881565b90565b61608e61608961609392610881565b6102d0565b61027d565b90565b6160aa6160a56160af92614346565b6102d0565b61027d565b90565b90565b6160c96160c46160ce926160b2565b6102d0565b61027d565b90565b906160dc910261027d565b90565b60ff1690565b6160f96160f46160fe926145c4565b6102d0565b6160df565b90565b6161209061611a616114616125946160df565b9161027d565b9061034f565b61027d565b90565b61613c61613761614192614648565b6102d0565b61027d565b90565b90565b61615b61615661616092616144565b6102d0565b61027d565b90565b61617761617261617c926145f0565b6102d0565b61027d565b90565b90565b61619661619161619b9261617f565b6102d0565b61027d565b90565b6161b26161ad6161b792613864565b6102d0565b61027d565b90565b90565b6161d16161cc6161d6926161ba565b6102d0565b61027d565b90565b90565b6161f06161eb6161f5926161d9565b6102d0565b61027d565b90565b61620c6162076162119261461c565b6102d0565b61027d565b90565b90565b61622b61622661623092616214565b6102d0565b61027d565b90565b61624761624261624c926145c4565b6102d0565b61027d565b90565b90565b61626661626161626b9261624f565b6102d0565b61027d565b90565b61628261627d6162879261425f565b6102d0565b61027d565b90565b90565b6162a161629c6162a69261628a565b6102d0565b61027d565b90565b6162bd6162b86162c292613ad9565b6102d0565b61027d565b90565b90565b6162dc6162d76162e1926162c5565b6102d0565b61027d565b90565b6162f86162f36162fd92614319565b6102d0565b61027d565b90565b90565b61631761631261631c92616300565b6102d0565b61027d565b90565b61633361632e61633892613aac565b6102d0565b61027d565b90565b90565b61635261634d6163579261633b565b6102d0565b61027d565b90565b61636e61636961637392614a8f565b6102d0565b61027d565b90565b90565b61638d61638861639292616376565b6102d0565b61027d565b90565b6163a96163a46163ae926148d9565b6102d0565b61027d565b90565b90565b6163c86163c36163cd926163b1565b6102d0565b61027d565b90565b90565b6163e76163e26163ec926163d0565b6102d0565b61027d565b90565b90565b61640661640161640b926163ef565b6102d0565b61027d565b90565b90565b61642561642061642a9261640e565b6102d0565b61027d565b90565b90565b61644461643f6164499261642d565b6102d0565b61027d565b90565b90565b61646361645e6164689261644c565b6102d0565b61027d565b90565b90565b61648261647d6164879261646b565b6102d0565b61027d565b90565b90565b6164a161649c6164a69261648a565b6102d0565b61027d565b90565b90565b6164c06164bb6164c5926164a9565b6102d0565b61027d565b90565b90565b6164df6164da6164e4926164c8565b6102d0565b61027d565b90565b90565b6164fe6164f9616503926164e7565b6102d0565b61027d565b90565b90565b61651d61651861652292616506565b6102d0565b61027d565b90565b90565b61653c61653761654192616525565b6102d0565b61027d565b90565b61654c6156fa565b5061655561174b565b5060020b8060ff1d81810118908161658c61658661658161657c61657761599c565b61605e565b61607a565b61027d565b9161027d565b11616d185761659961174b565b50600182166ffffcb933bd6fad37aa2d162d1a594001600160801b1802600160801b1891806165c86002616096565b166165db6165d55f611d72565b9161027d565b03616cdb575b806165ec6004616128565b166165ff6165f95f611d72565b9161027d565b03616c9e575b806166106008616163565b1661662361661d5f611d72565b9161027d565b03616c61575b80616634601061619e565b166166476166415f611d72565b9161027d565b03616c24575b8061665860206157a2565b1661666b6166655f611d72565b9161027d565b03616be7575b8061667c60406161f8565b1661668f6166895f611d72565b9161027d565b03616baa575b806166a06080616233565b166166b36166ad5f611d72565b9161027d565b03616b6d575b806166c561010061626e565b166166d86166d25f611d72565b9161027d565b03616b30575b806166ea6102006162a9565b166166fd6166f75f611d72565b9161027d565b03616af3575b8061670f6104006162e4565b1661672261671c5f611d72565b9161027d565b03616ab6575b8061673461080061631f565b166167476167415f611d72565b9161027d565b03616a79575b8061675961100061635a565b1661676c6167665f611d72565b9161027d565b03616a3c575b8061677e612000616395565b1661679161678b5f611d72565b9161027d565b036169ff575b806167a36140006163d3565b166167b66167b05f611d72565b9161027d565b036169c2575b806167c8618000616411565b166167db6167d55f611d72565b9161027d565b03616985575b806167ee6201000061644f565b166168016167fb5f611d72565b9161027d565b03616948575b806168146202000061648d565b166168276168215f611d72565b9161027d565b0361690c575b8061683a620400006164cb565b1661684d6168475f611d72565b9161027d565b036168d1575b61685f62080000616509565b1661687261686c5f611d72565b9161027d565b03616895575b5f1261688d575b60018060201b030160201c90565b5f190461687f565b906168c96168b95f926168b36b048a170391f7dc42444e8fa2616528565b906160d1565b6168c360806160e5565b90616101565b919050616878565b916168f6616906916168f06d2216e584f5fa1ea926041bedfe986164ea565b906160d1565b61690060806160e5565b90616101565b91616853565b916169326169429161692c6e5d6af8dedb81196699c329225ee6046164ac565b906160d1565b61693c60806160e5565b90616101565b9161682d565b9161696f61697f916169696f09aa508b5b7a84e1c677de54f3e99bc961646e565b906160d1565b61697960806160e5565b90616101565b91616807565b916169ac6169bc916169a66f31be135f97d08fd981231505542fcfa6616430565b906160d1565b6169b660806160e5565b90616101565b916167e1565b916169e96169f9916169e36f70d869a156d2a1b890bb3df62baf32f76163f2565b906160d1565b6169f360806160e5565b90616101565b916167bc565b91616a26616a3691616a206fa9f746462d870fdf8a65dc1f90e061e56163b4565b906160d1565b616a3060806160e5565b90616101565b91616797565b91616a63616a7391616a5d6fd097f3bdfd2022b8845ad8f792aa5825616379565b906160d1565b616a6d60806160e5565b90616101565b91616772565b91616aa0616ab091616a9a6fe7159475a2c29b7443b29c7fa6e889d961633e565b906160d1565b616aaa60806160e5565b90616101565b9161674d565b91616add616aed91616ad76ff3392b0822b70005940c7a398e4b70f3616303565b906160d1565b616ae760806160e5565b90616101565b91616728565b91616b1a616b2a91616b146ff987a7253ac413176f2b074cf7815e546162c8565b906160d1565b616b2460806160e5565b90616101565b91616703565b91616b57616b6791616b516ffcbe86c7900a88aedcffc83b479aa3a461628d565b906160d1565b616b6160806160e5565b90616101565b916166de565b91616b94616ba491616b8e6ffe5dee046a99a2a811c461f1969c3053616252565b906160d1565b616b9e60806160e5565b90616101565b916166b9565b91616bd1616be191616bcb6fff2ea16466c96a3843ec78b326b52861616217565b906160d1565b616bdb60806160e5565b90616101565b91616695565b91616c0e616c1e91616c086fff973b41fa98c081472e6896dfb254c06161dc565b906160d1565b616c1860806160e5565b90616101565b91616671565b91616c4b616c5b91616c456fffcb9843d60f6159c9db58835c9266446161bd565b906160d1565b616c5560806160e5565b90616101565b9161664d565b91616c88616c9891616c826fffe5caca7e10e4e61c3624eaa0941cd0616182565b906160d1565b616c9260806160e5565b90616101565b91616629565b91616cc5616cd591616cbf6ffff2e50f5f656932ef12357cf3c7fdcc616147565b906160d1565b616ccf60806160e5565b90616101565b91616605565b91616d02616d1291616cfc6ffff97272373d413259a46990580e213a6160b5565b906160d1565b616d0c60806160e5565b90616101565b916165e1565b6345c3193d60e11b614560565b616d39616d34616d3e926116ff565b6102d0565b613630565b90565b616d4c905f03610881565b90565b919091616d5a612abb565b5081616d6e616d685f612fe7565b916116ff565b125f14616da15791616d9891616d90616d8b616d9d959392611705565b616d25565b905f92618510565b61854e565b5b90565b616dca92616dc592616db7616dc0939291616d25565b90600192618510565b61854e565b616d41565b616d9e565b919091616dda612abb565b5081616dee616de85f612fe7565b916116ff565b125f14616e215791616e1891616e10616e0b616e1d959392611705565b616d25565b905f926185b1565b61854e565b5b90565b616e4a92616e4592616e37616e40939291616d25565b906001926185b1565b61854e565b616d41565b616e1e565b906fffffffffffffffffffffffffffffffff90616e6a615a31565b50600f0b911601908160801c616e7c57565b6393dafdf15f526004601cfd5b616ea691616e9f91616e99612abb565b506157be565b9115610442565b616ee457616eb381610a7f565b616ec6616ec060406161f8565b9161027d565b03616ed757616ed490617524565b90565b631e048e1d60e01b612f3e565b50616eee5f6120f6565b90565b90616f38616f32616f3e93616f0461182b565b50616f0d612abb565b50616f16612abb565b508060801d90600f0b938060801d90600f0b9103930392613ce4565b91613ce4565b9061588f565b90565b90565b616f58616f53616f5d92616f41565b6102d0565b610243565b90565b616f6e6401000276a3616f44565b90565b90616f7c9103610243565b90565b90565b616f96616f91616f9b92616f7f565b6102d0565b610243565b90565b616fbb73fffd8963efd1fc6a506488495d951d5163961682616f82565b90565b616fd2616fcd616fd792613463565b6102d0565b6160df565b90565b616ff990616ff3616fed616ffe946160df565b9161027d565b90615757565b61027d565b90565b61701561701061701a926160df565b6102d0565b61027d565b90565b90565b61703461702f6170399261701d565b6102d0565b61027d565b90565b61705b9061705561704f6170609461027d565b9161027d565b90615757565b61027d565b90565b6170829061707c6170766170879461027d565b9161027d565b9061034f565b61027d565b90565b61709e6170996170a3926145c4565b6102d0565b610881565b90565b906170b19103610881565b90565b6170c86170c36170cd9261461c565b6102d0565b6160df565b90565b6170ef906170e96170e36170f4946160df565b91610881565b90615757565b610881565b90565b90565b61710e617109617113926170f7565b6102d0565b610881565b90565b906171219102610881565b90565b90565b61713b61713661714092617124565b6102d0565b610881565b90565b1d90565b6171669061716061715a61716b946160df565b91610881565b90617143565b610881565b90565b61718261717d61718792610881565b6102d0565b610708565b90565b90565b6171a161719c6171a69261718a565b6102d0565b610881565b90565b906171b49101610881565b90565b6171bf612326565b506171d2816171cc616f60565b90616f71565b6171eb6171e56171e0616f9e565b610243565b91610243565b116174815761738e61720f6171ff8361323d565b6172096020616fbe565b90616fda565b61728b61727b61726b61722961722485618687565b617001565b938461723e6172386080616233565b9161027d565b10155f1461745d576172649061725e86617258607f617020565b90615cad565b90617063565b935b612f68565b617275608061708a565b906170a6565b61728560406170b4565b906170d0565b908002607f1c8060801c9182603f1b17911c8002607f1c8060801c9182603e1b17911c8002607f1c8060801c9182603d1b17911c8002607f1c8060801c9182603c1b17911c8002607f1c8060801c9182603b1b17911c8002607f1c8060801c9182603a1b17911c8002607f1c8060801c918260391b17911c8002607f1c8060801c918260381b17911c8002607f1c8060801c918260371b17911c8002607f1c8060801c918260361b17911c8002607f1c8060801c918260351b17911c8002607f1c8060801c918260341b17911c8002607f1c8060801c918260331b17911c8002607f1c60801c60321b17617388693627a301d71055774c856170fa565b90617116565b61740a6174056173f56173d56173d06173c0866173ba6f028f6481ab7f045a5af012a19d003aaa617127565b906170a6565b6173ca60806160e5565b90617147565b61716e565b936173ef6fdb2df09e81959a81455e260799a0632f61718d565b906171a9565b6173ff60806160e5565b90617147565b61716e565b918161741e61741885610708565b91610708565b145f1461742c575090505b90565b61744761744161743b85616544565b92610243565b91610243565b11155f1461745657505b617429565b9050617451565b61747b90617475607f6174708891617020565b615cad565b9061703c565b93617266565b6318521d4960e21b614b98565b9061749761592a565b5060018060a01b03169060018060a01b0319161790565b906174b761592a565b5062ffffff1660a01b9062ffffff60a01b19161790565b906174d761592a565b5062ffffff1660b81b9062ffffff60b81b19161790565b6174f6611816565b5060018060a01b03165f5260018060a01b031660205260405f2090565b60609061751e612abf565b50015190565b60409061752f612abb565b50015190565b61753d612f45565b5060801d90565b61754e60606106c8565b90565b5f90565b5f90565b617561617544565b90602080808461756f617551565b81520161757a617555565b815201617585613d3d565b81525050565b617593617559565b90565b61ffff1690565b6175b16175ac6175b692617596565b6102d0565b61027d565b90565b6175cd6175c86175d29261027d565b6102d0565b617596565b90565b6175e96175e46175ee926158d5565b6102d0565b61027d565b90565b6175fd620f42406175d5565b90565b61761461760f617619926106dd565b6102d0565b61027d565b90565b90565b61763361762e6176389261761c565b6102d0565b610243565b90565b61765873fffd8963efd1fc6a506488495d951d5263988d2661761f565b90565b6176666101006106c8565b90565b5f90565b61767561765b565b9060208080808080808089617688617551565b815201617693617555565b81520161769e613d39565b8152016176a9617551565b8152016176b4617669565b8152016176bf617669565b8152016176ca617669565b8152016176d5617669565b81525050565b6176e361766d565b90565b906176f09061027d565b9052565b6176fe905161027d565b90565b61771061771691939293610881565b92610881565b91828103925f82851281831216928513911215161761773157565b611543565b617742620f42406175d5565b90565b634e487b7160e01b5f52601260045260245ffd5b61776561776b9161027d565b9161027d565b908115617776570490565b617745565b906177869103610708565b90565b9061779261182b565b5061779b61174b565b916177a4612abf565b506177ad61758b565b936177b95f83016133da565b936177c660408501612ac3565b93845f146181a2576177e86177e26177dd88618733565b6187f4565b5b61759d565b906177f45f820161204c565b906177fe5f6120f6565b9061781361780b8a6156fe565b5f8c01612b06565b61782861781f8a61604c565b60208c01612081565b61784061783760038901613623565b60408c01613d8a565b61785461784f60808301611e6b565b618843565b5f146181945761786e61786960808301611e6b565b618880565b5b8461788261787c5f611d72565b9161027d565b145f1461817d575b95866178a561789f61789a6175f1565b61027d565b91617600565b101561814d575b6178b75f830161204c565b6178c96178c35f6120f6565b91610881565b1461812757885f14618091576178e160608301612ad0565b6178fb6178f56178f08d6156fe565b610243565b91610243565b101561806c5761790d60608301612ad0565b61792661792061791b616f60565b610243565b91610243565b1115618051575b6179356176db565b99895f146180395761795a61794c60018b01611536565b959194955b60e08d016176e6565b5b6179818161797161796b5f6120f6565b91610881565b148d8115618009575b5015610442565b15617e9957617ade8c8c617ad8617ad25f8f8f908f6179f46179dc898e6179d460206179cd8160058f9b6179c5617aae9d8f6179be818c01612ad0565b9101612b06565b01950161203f565b920161203f565b9086926189a5565b906179ee60208b019260408c01612af8565b90612081565b617a006020880161203f565b617a19617a13617a0e61596d565b610708565b91610708565b1315617e80575b617a2c6020880161203f565b617a45617a3f617a3a61599c565b610708565b91610708565b1215617e67575b617a6c617a63617a5e60208a0161203f565b616544565b60608901612b06565b617a99617a7a858a01612ad0565b928d617a936060617a8c818d01612ad0565b9201612ad0565b91618b7a565b617aa560408a01613d98565b908b9293618ba5565b949296919390970196617acc608083019560c060a0850194016176e6565b906176e6565b906176e6565b90612b06565b8a617aea5f850161204c565b617afc617af65f6120f6565b91610881565b135f14617e0f57617b5591617b1e617b1960a0617b2494016176f4565b61854e565b906170a6565b94617b4f617b4a8d617b4460c0617b3d608084016176f4565b92016176f4565b906115ba565b61854e565b90617701565b925b85617b6a617b645f611d72565b9161027d565b11617d73575b8b8b617b7e60408301613d98565b617b90617b8a5f613645565b91613630565b11617d1a575b90617ba25f8201612ad0565b617bbf617bb9617bb460608601612ad0565b610243565b91610243565b145f14617cc3578a82617bd560408f9501612ac3565b617c27575b60209150617c0e935f14617c1657617bf682617c06920161203f565b617c00600161237e565b9061777b565b915b01612081565b5b929361795b565b81617c21910161203f565b91617c08565b83617c6c617c8292604094617c89975f14617ca057617c4860e083016176f4565b617c646020617c5960028501611536565b925b9293940161203f565b909192618df7565b90617c92575b617c7d838501613d98565b616e4f565b9101613d8a565b898c8a8d617bda565b617c9b90611705565b617c72565b617cac60018201611536565b617c646020617cbd60e086016176f4565b92617c5b565b617ce4617cdf5f617cd881617cea9501612ad0565b9401612ad0565b610243565b91610243565b03617cf5575b617c0f565b617d158c6020617d0e617d095f8401612ad0565b6171b7565b9101612081565b617cf0565b617d6660e0617d55617d6c94617d3260c086016176f4565b90617d4f617d4a6040617d43613680565b9301613d98565b613690565b916158a9565b920191617d61836176f4565b6136ac565b906176e6565b8b8b617b96565b95617dc7908b89617d8c617d868a61027d565b91617600565b145f14617dcd5760c0617d9f91016176f4565b5b617dc18d617dbb60c084920191617db6836176f4565b615cad565b906176e6565b906136ac565b95617b70565b617dfc617df582617def60c0617de86080617e0a97016176f4565b92016176f4565b906136ac565b89906160d1565b617e04617736565b90617759565b617da0565b94617e5b617e5660a0617e4f617e6195617e49617e448c617e3e60c0617e37608084016176f4565b92016176f4565b906136ac565b61854e565b906171a9565b98016176f4565b61854e565b90614ee3565b92617b57565b617e7b617e7261599c565b60208901612081565b617a4c565b617e94617e8b61596d565b60208901612081565b617a20565b9698939450999690949891617ed1617ec0617ed992617eba60208c0161203f565b906174ae565b617ecb5f8b01612ad0565b9061748e565b5f8301613a22565b617ee560038201613623565b617f02617efc617ef760408b01613d98565b613630565b91613630565b03617fec575b617f128315610442565b5f14617fcf576002617f2960e0617f3094016176f4565b910161159a565b5b617f60617f5a617f425f860161204c565b617f54617f4e5f6120f6565b91610881565b12610442565b91610442565b14155f14617f9a57617f8b617f9693617f865f617f7f617f9095613ce4565b950161204c565b6170a6565b613ce4565b9061588f565b935b565b90617fbd617fb8617fc994617fb35f617fc3950161204c565b6170a6565b613ce4565b91613ce4565b9061588f565b93617f98565b6001617fe060e0617fe794016176f4565b910161159a565b617f31565b618004617ffb60408901613d98565b60038301613df6565b617f08565b61801591505f01612ad0565b61803261802c61802760608801612ad0565b610243565b91610243565b148d61797a565b61795a61804860028b01611536565b95919495617951565b506180666060639e4d7cc760e01b9201612ad0565b90614b98565b898261808b6060618084637c9c6e8f60e01b946156fe565b9201612ad0565b916188c0565b61809d60608301612ad0565b6180b76180b16180ac8d6156fe565b610243565b91610243565b1115618102576180c960608301612ad0565b6180e26180dc6180d761763b565b610243565b91610243565b1061792d57506180fc6060639e4d7cc760e01b9201612ad0565b90614b98565b8982618121606061811a637c9c6e8f60e01b946156fe565b9201612ad0565b916188c0565b975050505050509392505061813a612112565b906181485f94939294611d72565b929190565b6181585f830161204c565b61816a6181645f6120f6565b91610881565b13156178ac57634b10312360e11b612f3e565b61818f9061818a866175b9565b61889e565b61788a565b61819d8961886c565b61786f565b6177e86181b66181b188618733565b6187ad565b6177e3565b6181dc6181cd6181e293926001611045565b916181d783611536565b6136ac565b9061159a565b565b6181ec612f45565b50600f0b90565b91906182278261822161821261820b60048890610307565b8590610339565b9161821c83611536565b611557565b9061159a565b33926182325f61329a565b919261827061826a6182647f1b3d7edb2e9c0b0e7c525b20aaaef0f5940d2ed71663c7d39266ecafac728859946102fb565b946102fb565b9461031d565b9461828561827c610231565b928392836115df565b0390a4565b5f90565b60209061829961828a565b50015190565b8260449260405192835260020b600483015260020b6024820152fd5b919392936182c7611816565b506040519460268601526006850152600384015282525f603a600c8401209281604082015281602082015252565b156182fc57565b5f80fd5b90565b61831761831261831c92618300565b6102d0565b61027d565b90565b61832761174b565b506183338183906160d1565b9161833c61174b565b505f1981830983808210910303916183668561836061835a8661027d565b9161027d565b116182f5565b826183796183735f611d72565b9161027d565b146184da576184d192856184d796936183c89361839461174b565b500990858211900394039360016183b45f6183af8691611d72565b615cad565b841680809504960493805f030401906160d1565b17916184cb6184af61848b61846761844361841f6183f060036183eb8991618303565b6160d1565b6183fa6002616096565b18618419600261841461840e8b85906160d1565b91616096565b615cad565b906160d1565b61843d60026184386184328a85906160d1565b91616096565b615cad565b906160d1565b618461600261845c6184568985906160d1565b91616096565b615cad565b906160d1565b618485600261848061847a8885906160d1565b91616096565b615cad565b906160d1565b6184a960026184a461849e8785906160d1565b91616096565b615cad565b906160d1565b916184c66184c060029285906160d1565b91616096565b615cad565b906160d1565b906160d1565b90565b5050500490565b90565b6184f86184f36184fd926184e1565b6102d0565b61027d565b90565b61850d600160601b6184e4565b90565b5f916185279194939461852161174b565b50618e67565b92618539618533618500565b91613690565b936185468582849161831f565b940911160190565b6185609061855a612abb565b50612f68565b908161857461856e5f6120f6565b91610881565b1261857b57565b6393dafdf160e01b612f3e565b61859c6185976185a192614ec4565b6102d0565b6160df565b90565b6185ae6060618588565b90565b916185ba61174b565b50826185ce6185c884610243565b91610243565b1161867b575b60018060a01b0383161561866f576185ee6185fc91613690565b6185f66185a4565b90616fda565b61860f61860a838590616f71565b61323d565b935f146186425761863e936186389261862c61863293929161323d565b91618e9d565b9161323d565b90618f0a565b5b90565b61866a936186649261865861865e93929161323d565b9161831f565b9161323d565b90617759565b61863f565b62bfc9215f526004601cfd5b9190916185d4565b5f90565b61868f618683565b506186ac816186a66186a05f611d72565b9161027d565b116182f5565b7f07060605060205000602030205040001060502050303040105050304000000006f8421084210842108cc6318c6db6d54be826fffffffffffffffffffffffffffffffff1060071b83811c67ffffffffffffffff1060061b1783811c63ffffffff1060051b1783811c61ffff1060041b1783811c60ff1060031b1792831c1c601f161a1790565b61873b612abf565b5060b81c62ffffff1690565b5f90565b90565b61876261875d6187679261874b565b6102d0565b6160df565b90565b6187899061878361877d61878e946160df565b916106dd565b9061034f565b6106dd565b90565b6187a56187a06187aa926106dd565b6102d0565b617596565b90565b6187cd6187d2916187bc618747565b506187c7600c61874e565b9061876a565b618791565b90565b90565b6187ec6187e76187f1926187d5565b6102d0565b6106dd565b90565b61881290618800618747565b5061880c610fff6187d8565b16618791565b90565b90565b61882c61882761883192618815565b6102d0565b6106dd565b90565b61884062400000618818565b90565b61884b611489565b50618854618834565b166188676188615f614854565b916106dd565b141590565b618874612abf565b5060d01c62ffffff1690565b6188929061888c612abf565b50618f4d565b9061889c826139e6565b565b610fff62ffffff916188ae612abf565b50169116620f42408183020491010390565b8260449260405192835260018060a01b0316600483015260018060a01b03166024820152fd5b60016188f29101610708565b90565b61890961890461890e9261237b565b6102d0565b61027d565b90565b61892561892061892a92612340565b6102d0565b612340565b90565b9061893790618911565b5f5260205260405f2090565b9061894e91036160df565b90565b61896561896061896a926160df565b6102d0565b6106dd565b90565b61898161897c618986926106dd565b6102d0565b610708565b90565b906189949101610708565b90565b906189a29102610708565b90565b9291906189c5906189b4612326565b506189bd611489565b508290618f62565b915f14618a9557618a0b92618a106189dc84618f81565b9590618a055f196189ff6189f060ff617001565b6189f98b617001565b90615cad565b90617063565b9361892d565b611536565b169283618a25618a1f5f611d72565b9161027d565b141593845f14618a6b5790618a5b618a56618a51618a6194618a4b618a66989591618687565b90618943565b618951565b61896d565b9061777b565b618997565b5b915b565b50618a8b90618a85618a80618a909592618951565b61896d565b9061777b565b618997565b618a67565b618aa2618ae793926188e6565b91618aec618aaf84618f81565b9590618ae1618adb618acb6001618ac68b916188f5565b616fda565b618ad560016188f5565b90615cad565b1961027d565b9361892d565b611536565b1680618b00618afa5f611d72565b9161027d565b141593845f14618b465790618b34618b2f618b2a618b3a94618b25618b3f9895618fa2565b618943565b618951565b61896d565b90618989565b618997565b5b91618a69565b618b709150618b6a618b65618b60618b75969360ff618943565b618951565b61896d565b90618989565b618997565b618b40565b60019291618b866156fa565b50838060a01b031691838060a01b031692839116818310189118021890565b9091949293618bd790618bb66156fa565b50618bbf61174b565b50618bc861174b565b50618bd161174b565b50617600565b9481618beb618be585610243565b91610243565b10159285618c01618bfb5f6120f6565b91610881565b125f14618d2e57618c3c618c1c618c1788616d41565b61607a565b618c2e618c276175f1565b8a90615cad565b618c366175f1565b9161831f565b95845f14618d1a57618c53828585906001926185b1565b5b9680618c68618c628a61027d565b9161027d565b10155f14618ce65750509580618c8d618c87618c826175f1565b61027d565b9161027d565b145f14618cc45750845b925b5f14618cb25790618cad9186915f92618510565b5b915b565b618cbf9190865f926185b1565b618cae565b618ce1908690618cdb81618cd66175f1565b615cad565b91618e9d565b618c97565b9650965050618d14618d0d618d08618d028886908689926190b1565b98616d41565b61607a565b8690615cad565b92618c99565b618d2984838590600192618510565b618c54565b83969594935f14618de457618d47818484905f92618510565b5b94618d528161607a565b618d64618d5e8861027d565b9161027d565b10155f14618dbe575090618da59291965b5f14618dab5790618d8a9187916001926185b1565b5b938490618d9f81618d9a6175f1565b615cad565b91618e9d565b90618cb0565b618db9919087600192618510565b618d8b565b618da593929550618dcf915061607a565b93618dde828287908a9261904d565b96618d75565b618df2838284905f926185b1565b618d48565b618e55618e6494618e43618e3a618e27618e225f98976004618e5e98618e1b612f45565b5001615a51565b615a67565b95618e3460018801611536565b90615cad565b6001860161159a565b618e4f60028501611536565b90615cad565b6002830161159a565b01615a8a565b90565b90618e7061174b565b5060018060a01b03169060018060a01b0316038060ff1d9081011890565b6001618e9a910161027d565b90565b9291618ea761174b565b50618eb48483839161831f565b939190918215618f055709618ed1618ecb5f611d72565b9161027d565b03618ed9575b565b90618ee390618e8e565b90618f0082618efa618ef45f611d72565b9161027d565b116182f5565b618ed7565b617745565b90618f1361174b565b505f8183061191040190565b90565b618f36618f31618f3b92618f1f565b6102d0565b6106dd565b90565b618f4a62bfffff618f22565b90565b618f55612abf565b50618f5e618f3e565b1690565b618f6a612326565b5060020b9060020b5f8183071291050390565b5f90565b90618f8a618f7d565b50618f93618683565b5060ff8260020b60081d921690565b618faa618683565b50618fc781618fc1618fbb5f611d72565b9161027d565b116182f5565b805f03167e1f0d1e100c1d070f090b19131c1706010e11080a1a141802121b1503160405601f7f80404055430052664432000050206106740530260200001075062001761170777fb6db6db6ddddddddd34d34d349249249210842108c6318c639ce739cffffffff840260fa1c60021b1b60fc1c60051b92831c63d76453e004161a1790565b929190916190596156fa565b506fffffffffffffffffffffffffffffffff83161560018060a01b03851615176190a4575f146190935761908f92915f92619291565b5b90565b61909f92915f92619139565b619090565b634f2461b85f526004601cfd5b929190916190bd6156fa565b506fffffffffffffffffffffffffffffffff83161560018060a01b038516151761910a575f146190f8576190f49291600192619139565b5b90565b6191059291600192619291565b6190f5565b634f2461b85f526004601cfd5b6191236191299161027d565b9161027d565b908115619134570490565b617745565b906191426156fa565b50826191566191505f611d72565b9161027d565b1461928a5761916761917591613690565b61916f6185a4565b90616fda565b925f146192285761918f826191898361323d565b906160d1565b61919a818490617759565b6191ac6191a68461323d565b9161027d565b146191e5575b50916191d76191dd926191d26191e2956191cc859161323d565b90619117565b6115ba565b90618f0a565b6131f0565b90565b6191ef90846136ac565b806192026191fc8661027d565b9161027d565b106191b25790619220925061921a619225949161323d565b90618e9d565b6131f0565b90565b9161923c826192368561323d565b906160d1565b918282119060018060a01b03851690840414161561927d5761927a9261926f6192686192759484615cad565b929161323d565b90618e9d565b6193c9565b90565b63f5c787f15f526004601cfd5b5091505090565b9261929a6156fa565b505f1461932757916192f982619303946192fe946192c66192c060018060a01b0361323d565b9161027d565b11155f14619306576192ec6192e66192f2936192e06185a4565b90616fda565b91613690565b90619117565b5b9161323d565b6115ba565b6193c9565b90565b619322919061931c619316618500565b91613690565b9161831f565b6192f3565b8161934061933a60018060a01b0361323d565b9161027d565b11155f146193a85761936661936061936c9361935a6185a4565b90616fda565b91613690565b90618f0a565b5b908160018060a01b038216111561939b576193989161938e6193939261323d565b615cad565b6131f0565b90565b634323a5555f526004601cfd5b6193c491906193be6193b8618500565b91613690565b91618e9d565b61936d565b906193d26156fa565b506193dc826131f0565b916193f06193ea849261027d565b9161323d565b036193f757565b6393dafdf160e01b612f3e56fea264697066735822122051c521bb9393d21203915d95eba2fd2c17256eb171afc14ad7213106322dcbff64736f6c634300081a0033","linkReferences":{}},"methodIdentifiers":{"allowance(address,address,uint256)":"598af9e7","approve(address,uint256,uint256)":"426a8493","balanceOf(address,uint256)":"00fdd58e","burn(address,uint256,uint256)":"f5298aca","clear(address,uint256)":"80f0b44c","collectProtocolFees(address,address,uint256)":"8161b874","donate((address,address,uint24,int24,address),uint256,uint256,bytes)":"234266d7","extsload(bytes32)":"1e2eaeaf","extsload(bytes32,uint256)":"35fd631a","extsload(bytes32[])":"dbd035ff","exttload(bytes32)":"f135baaa","exttload(bytes32[])":"9bf6645f","initialize((address,address,uint24,int24,address),uint160)":"6276cbbe","isOperator(address,address)":"b6363cf2","mint(address,uint256,uint256)":"156e29f6","modifyLiquidity((address,address,uint24,int24,address),(int24,int24,int256,bytes32),bytes)":"5a6bcfda","owner()":"8da5cb5b","protocolFeeController()":"f02de3b2","protocolFeesAccrued(address)":"97e8cd4e","setOperator(address,bool)":"558a7297","setProtocolFee((address,address,uint24,int24,address),uint24)":"7e87ce7d","setProtocolFeeController(address)":"2d771389","settle()":"11da60b4","settleFor(address)":"3dd45adb","supportsInterface(bytes4)":"01ffc9a7","swap((address,address,uint24,int24,address),(bool,int256,uint160),bytes)":"f3cd914c","sync(address)":"a5841194","take(address,address,uint256)":"0b0d9c09","transfer(address,uint256,uint256)":"095bcdb6","transferFrom(address,address,uint256,uint256)":"fe99049a","transferOwnership(address)":"f2fde38b","unlock(bytes)":"48c89491","updateDynamicLPFee((address,address,uint24,int24,address),uint24)":"52759651"},"id":59}